A51 MACRO ASSEMBLER  STARTUP_N76E003BETA                                                  08/23/2016 09:59:09 PAGE     1


MACRO ASSEMBLER A51 V8.02b
OBJECT MODULE PLACED IN .\Output\STARTUP_N76E003beta.obj
ASSEMBLER INVOKED BY: C:\Keil\C51\BIN\A51.EXE ..\..\Startup\STARTUP_N76E003beta.A51 SET(SMALL) DEBUG PRINT(.\LST\STARTUP
                      _N76E003beta.lst) OBJECT(.\Output\STARTUP_N76E003beta.obj) EP

LOC  OBJ            LINE     SOURCE

                       1     $nomod51 
                       2     ;------------------------------------------------------------------------------
                       3     ;  This file is part of the C51 Compiler package
                       4     ;  Copyright (c) 1988-2002 Keil Elektronik GmbH and Keil Software, Inc.
                       5     ;------------------------------------------------------------------------------
                       6     ;  STARTUP.A51:  This code is executed after processor reset.
                       7     ;
                       8     ;  To translate this file use A51 with the following invocation:
                       9     ;
                      10     ;     A51 STARTUP.A51
                      11     ;
                      12     ;  To link the modified STARTUP.OBJ file to your application use the following
                      13     ;  BL51 invocation:
                      14     ;
                      15     ;     BL51 <your object file list>, STARTUP.OBJ <controls>
                      16     ;
                      17     ;------------------------------------------------------------------------------
                      18     ;
                      19     ;  User-defined Power-On Initialization of Memory
                      20     ;
                      21     ;  With the following EQU statements the initialization of memory
                      22     ;  at processor reset can be defined:
                      23     ;
                      24     ;               ; the absolute start-address of IDATA memory is always 0
  0080                25     IDATALEN        EQU     80H     ; the length of IDATA memory in bytes.
                      26     ;
  0000                27     XDATASTART      EQU     0H      ; the absolute start-address of XDATA memory
  00FF                28     XDATALEN        EQU     0FFH     ; the length of XDATA memory in bytes.
                      29     ;
  0000                30     PDATASTART      EQU     0H      ; the absolute start-address of PDATA memory
  0000                31     PDATALEN        EQU     0H      ; the length of PDATA memory in bytes.
                      32     ;
                      33     ;  Notes:  The IDATA space overlaps physically the DATA and BIT areas of the
                      34     ;          8051 CPU. At minimum the memory space occupied from the C51 
                      35     ;          run-time routines must be set to zero.
                      36     ;------------------------------------------------------------------------------
                      37     ;
                      38     ;  Reentrant Stack Initilization
                      39     ;
                      40     ;  The following EQU statements define the stack pointer for reentrant
                      41     ;  functions and initialized it:
                      42     ;
                      43     ;  Stack Space for reentrant functions in the SMALL model.
  0000                44     IBPSTACK        EQU     0       ; set to 1 if small reentrant is used.
  0100                45     IBPSTACKTOP     EQU     0FFH+1  ; set top of stack to highest location+1.
                      46     ;
                      47     ;  Stack Space for reentrant functions in the LARGE model.      
  0000                48     XBPSTACK        EQU     0       ; set to 1 if large reentrant is used.
  0000                49     XBPSTACKTOP     EQU     0FFFFH+1; set top of stack to highest location+1.
                      50     ;
                      51     ;  Stack Space for reentrant functions in the COMPACT model.    
  0000                52     PBPSTACK        EQU     0       ; set to 1 if compact reentrant is used.
  0000                53     PBPSTACKTOP     EQU     0FFFFH+1; set top of stack to highest location+1.
                      54     ;
                      55     ;------------------------------------------------------------------------------
                      56     ;
                      57     ;  Page Definition for Using the Compact Model with 64 KByte xdata RAM
A51 MACRO ASSEMBLER  STARTUP_N76E003BETA                                                  08/23/2016 09:59:09 PAGE     2

                      58     ;
                      59     ;  The following EQU statements define the xdata page used for pdata
                      60     ;  variables. The EQU PPAGE must conform with the PPAGE control used
                      61     ;  in the linker invocation.
                      62     ;
  0000                63     PPAGEENABLE     EQU     0       ; set to 1 if pdata object are used.
                      64     ;
  0000                65     PPAGE           EQU     0       ; define PPAGE number.
                      66     ;
  00A0                67     PPAGE_SFR       DATA    0A0H    ; SFR that supplies uppermost address byte
                      68     ;               (most 8051 variants use P2 as uppermost address byte)
                      69     ;
                      70     ;------------------------------------------------------------------------------
                      71     
                      72     ; Standard SFR Symbols 
  00E0                73     ACC     DATA    0E0H
  00F0                74     B       DATA    0F0H
  0081                75     SP      DATA    81H
  0082                76     DPL     DATA    82H
  0083                77     DPH     DATA    83H
                      78     
                      79                     NAME    ?C_STARTUP
                      80     
                      81     
                      82     ?C_C51STARTUP   SEGMENT   CODE
                      83     ?STACK          SEGMENT   IDATA
                      84     
----                  85                     RSEG    ?STACK
0000                  86                     DS      1
                      87     
                      88                     EXTRN CODE (?C_START)
                      89                     PUBLIC  ?C_STARTUP
                      90     
----                  91                     CSEG    AT      0
0000 020000   F       92     ?C_STARTUP:     LJMP    STARTUP1
                      93     
----                  94                     RSEG    ?C_C51STARTUP
                      95     
0000                  96     STARTUP1:
                      97     
                      98     ;Enable iap
0000 75C7AA           99             MOV 0C7H,#0AAH
0003 75C755          100             MOV 0C7H,#055H
0006 439F01          101             ORL 9FH,#01H
                     102     
0009 75AF04          103             MOV 0AFH,#04H
                     104     
000C 75A630          105             MOV 0A6H,#30H
000F 75A700          106             MOV 0A7H,#00H
                     107             
0012 75C7AA          108             MOV 0C7H,#0AAH
0015 75C755          109             MOV 0C7H,#55H
0018 43A401          110             ORL 0A4H,#01H
001B AAAE            111             MOV R2,0AEH
                     112             
001D 75A631          113             MOV 0A6H,#31H
                     114             
0020 75C7AA          115             MOV 0C7H,#0AAH
0023 75C755          116             MOV 0C7H,#55H
0026 43A401          117             ORL 0A4H,#01H
0029 ABAE            118             MOV R3,0AEH
                     119     
002B 75A632          120             MOV 0A6H,#32H
                     121             
002E 75C7AA          122             MOV 0C7H,#0AAH
0031 75C755          123             MOV 0C7H,#55H
A51 MACRO ASSEMBLER  STARTUP_N76E003BETA                                                  08/23/2016 09:59:09 PAGE     3

0034 43A401          124             ORL 0A4H,#01H
0037 ACAE            125             MOV R4,0AEH
                     126     
0039 75A633          127             MOV 0A6H,#33H
                     128             
003C 75C7AA          129             MOV 0C7H,#0AAH
003F 75C755          130             MOV 0C7H,#55H
0042 43A401          131             ORL 0A4H,#01H
0045 ADAE            132             MOV R5,0AEH
                     133             
                     134             
0047 75C7AA          135             MOV 0C7H,#0AAH
004A 75C755          136             MOV 0C7H,#55H
004D 539FFE          137             ANL 9FH,#0FEH   
                     138             
0050 75C7AA          139             MOV 0C7H,#0AAH  
0053 75C755          140             MOV 0C7H,#55H
0056 759101          141             MOV 91H,#01H
                     142     
0059 75C7AA          143             MOV 0C7H,#0AAH  
005C 75C755          144             MOV 0C7H,#55H
005F 8A84            145             MOV 84H,R2
                     146     
0061 75C7AA          147             MOV 0C7H,#0AAH  
0064 75C755          148             MOV 0C7H,#55H
0067 8B85            149             MOV 85H,R3
                     150     
0069 75C7AA          151             MOV 0C7H,#0AAH  
006C 75C755          152             MOV 0C7H,#55H
006F 8CEF            153             MOV 0EFH,R4
                     154             
0071 75C7AA          155             MOV 0C7H,#0AAH  
0074 75C755          156             MOV 0C7H,#55H
0077 8DF7            157             MOV 0F7H,R5
                     158             
0079 75C7AA          159             MOV 0C7H,#0AAH  
007C 75C755          160             MOV 0C7H,#55H
007F 759100          161             MOV 91H,#00H
                     162     
                     163     
                     164     
                     165     
                     166     IF IDATALEN <> 0
0082 787F            167                     MOV     R0,#IDATALEN - 1
0084 E4              168                     CLR     A
0085 F6              169     IDATALOOP:      MOV     @R0,A
0086 D8FD            170                     DJNZ    R0,IDATALOOP
                     171     ENDIF
                     172     
                     173     IF XDATALEN <> 0
0088 900000          174                     MOV     DPTR,#XDATASTART
008B 7FFF            175                     MOV     R7,#LOW (XDATALEN)
                     176       IF (LOW (XDATALEN)) <> 0
008D 7E01            177                     MOV     R6,#(HIGH (XDATALEN)) +1
                     178       ELSE
                                             MOV     R6,#HIGH (XDATALEN)
                               ENDIF
008F E4              181                     CLR     A
0090 F0              182     XDATALOOP:      MOVX    @DPTR,A
0091 A3              183                     INC     DPTR
0092 DFFC            184                     DJNZ    R7,XDATALOOP
0094 DEFA            185                     DJNZ    R6,XDATALOOP
                     186     ENDIF
                     187     
                     188     IF PPAGEENABLE <> 0
                                             MOV     PPAGE_SFR,#PPAGE
A51 MACRO ASSEMBLER  STARTUP_N76E003BETA                                                  08/23/2016 09:59:09 PAGE     4

                             ENDIF
                     191     
                     192     IF PDATALEN <> 0
                                             MOV     R0,#LOW (PDATASTART)
                                             MOV     R7,#LOW (PDATALEN)
                                             CLR     A
                             PDATALOOP:      MOVX    @R0,A
                                             INC     R0
                                             DJNZ    R7,PDATALOOP
                             ENDIF
                     200     
                     201     IF IBPSTACK <> 0
                             EXTRN DATA (?C_IBP)
                             
                                             MOV     ?C_IBP,#LOW IBPSTACKTOP
                             ENDIF
                     206     
                     207     IF XBPSTACK <> 0
                             EXTRN DATA (?C_XBP)
                             
                                             MOV     ?C_XBP,#HIGH XBPSTACKTOP
                                             MOV     ?C_XBP+1,#LOW XBPSTACKTOP
                             ENDIF
                     213     
                     214     IF PBPSTACK <> 0
                             EXTRN DATA (?C_PBP)
                                             MOV     ?C_PBP,#LOW PBPSTACKTOP
                             ENDIF
                     218     
0096 758100   F      219                     MOV     SP,#?STACK-1
                     220     ; This code is required if you use L51_BANK.A51 with Banking Mode 4
                     221     ; EXTRN CODE (?B_SWITCH0)
                     222     ;               CALL    ?B_SWITCH0      ; init bank mechanism to code bank 0
0099 020000   F      223                     LJMP    ?C_START
                     224     
                     225                     END
A51 MACRO ASSEMBLER  STARTUP_N76E003BETA                                                  08/23/2016 09:59:09 PAGE     5

SYMBOL TABLE LISTING
------ ----- -------


N A M E             T Y P E  V A L U E   ATTRIBUTES

?C_C51STARTUP. . .  C SEG    009CH       REL=UNIT
?C_START . . . . .  C ADDR   -----       EXT
?C_STARTUP . . . .  C ADDR   0000H   A   
?STACK . . . . . .  I SEG    0001H       REL=UNIT
ACC. . . . . . . .  D ADDR   00E0H   A   
B. . . . . . . . .  D ADDR   00F0H   A   
DPH. . . . . . . .  D ADDR   0083H   A   
DPL. . . . . . . .  D ADDR   0082H   A   
IBPSTACK . . . . .  N NUMB   0000H   A   
IBPSTACKTOP. . . .  N NUMB   0100H   A   
IDATALEN . . . . .  N NUMB   0080H   A   
IDATALOOP. . . . .  C ADDR   0085H   R   SEG=?C_C51STARTUP
PBPSTACK . . . . .  N NUMB   0000H   A   
PBPSTACKTOP. . . .  N NUMB   0000H   A   
PDATALEN . . . . .  N NUMB   0000H   A   
PDATASTART . . . .  N NUMB   0000H   A   
PPAGE. . . . . . .  N NUMB   0000H   A   
PPAGEENABLE. . . .  N NUMB   0000H   A   
PPAGE_SFR. . . . .  D ADDR   00A0H   A   
SP . . . . . . . .  D ADDR   0081H   A   
STARTUP1 . . . . .  C ADDR   0000H   R   SEG=?C_C51STARTUP
XBPSTACK . . . . .  N NUMB   0000H   A   
XBPSTACKTOP. . . .  N NUMB   0000H   A   
XDATALEN . . . . .  N NUMB   00FFH   A   
XDATALOOP. . . . .  C ADDR   0090H   R   SEG=?C_C51STARTUP
XDATASTART . . . .  N NUMB   0000H   A   


REGISTER BANK(S) USED: 0 


ASSEMBLY COMPLETE.  0 WARNING(S), 0 ERROR(S)
