C51 COMPILER V9.54   LQ12864                                                               08/30/2017 10:15:48 PAGE 1   


C51 COMPILER V9.54, COMPILATION OF MODULE LQ12864
OBJECT MODULE PLACED IN .\Objects\LQ12864.obj
COMPILER INVOKED BY: d:\Keil_v5\C51\BIN\C51.EXE ..\User\LQ12864.c LARGE OPTIMIZE(8,SPEED) BROWSE INCDIR(..\Lib;..\User) 
                    -DEBUG OBJECTEXTEND PRINT(.\Listings\LQ12864.lst) TABS(2) OBJECT(.\Objects\LQ12864.obj)

line level    source

   1          #include "LQ12864.h"
   2          
   3          sbit OLED_SCL = P2^4;
   4          sbit OLED_SDA = P2^3;
   5          sbit OLED_RST = P2^2;
   6          sbit OLED_DC  = P2^1;
   7          sbit OLED_CS  = P2^0;
   8          
   9          unsigned char code Logo[1024] = 
  10          {
  11            0x00,0x00,0x00,0x00,0x00,0x00,0x00,0x00,0x00,0x00,0x00,0x00,0x00,0x00,0x00,0x00,0x00,0x00,0x00,0x00,0x00,
             -0x00,0x00,0x00,0x00,0x00,0x00,0x00,0x00,0x00,0x00,0x00,
  12            0x00,0x00,0x00,0x00,0x00,0x00,0x00,0x00,0x00,0x00,0x00,0x00,0x00,0x00,0x00,0x00,0x00,0x00,0x00,0x00,0x00,
             -0x00,0x00,0x00,0x00,0x00,0x80,0x80,0x80,0x00,0x00,0x00,
  13            0x00,0x00,0x00,0x00,0x00,0x00,0x00,0x00,0x00,0x00,0x00,0x00,0x00,0x00,0x00,0x00,0x00,0x00,0x00,0x00,0x00,
             -0x00,0x00,0x00,0x00,0x00,0x00,0x00,0x00,0x00,0x00,0x00,
  14            0x00,0x00,0x00,0x00,0x00,0x00,0x00,0x00,0x00,0x00,0x00,0x00,0x00,0x00,0x00,0x00,0x00,0x00,0x00,0x00,0x00,
             -0x00,0x00,0x00,0x00,0x00,0x00,0x00,0x00,0x00,0x00,0x00,
  15            0x00,0x00,0x00,0x00,0x00,0x00,0x00,0x00,0xF0,0xFC,0xFC,0xFC,0x1C,0x1C,0x1C,0x1C,0x1C,0xFC,0xFC,0xF8,0xF0,
             -0x00,0x00,0x00,0x00,0x80,0xC0,0xE0,0xF0,0xF0,0x78,0x38,
  16            0x3C,0x1C,0x1C,0x1C,0x1C,0x1C,0x1C,0x3C,0x38,0x78,0x00,0x00,0x80,0xE0,0xF0,0xF8,0x78,0x38,0x1C,0x1C,0x1C,
             -0x1C,0xDC,0xFC,0xFC,0xFF,0xFF,0xF7,0xE1,0xC0,0x00,0x00,
  17            0x00,0x00,0x00,0x00,0xF0,0xFC,0xFC,0xFC,0x1C,0x1C,0x1C,0x1C,0x1C,0xFC,0xFC,0xF8,0xF0,0x00,0x00,0x00,0x00,
             -0x80,0xC0,0xE0,0xF0,0xF0,0x78,0x38,0x3C,0x1C,0x1C,0x1C,
  18            0x1C,0x1C,0x1C,0x3C,0x38,0x78,0x00,0x00,0x00,0x00,0xF0,0xFC,0xFC,0xFC,0x04,0x00,0x00,0x00,0x00,0x00,0x00,
             -0x80,0xFC,0xFC,0xFC,0x7C,0x00,0x00,0x00,0x00,0x00,0x00,
  19            0x00,0x00,0x00,0x00,0x00,0x00,0xC0,0xFE,0xFF,0xFF,0x1F,0x1C,0x1C,0x1C,0x1C,0x1C,0x7E,0xFF,0xFF,0xF3,0xC1,
             -0x00,0x00,0xC0,0xFE,0xFF,0xFF,0xFF,0x03,0x00,0x00,0x00,
  20            0x30,0x38,0x38,0x38,0xF8,0xF8,0xF8,0xF8,0x18,0x00,0x00,0x3C,0xFF,0xFF,0xFF,0xC3,0x00,0x00,0xC0,0xF0,0xFC,
             -0x3F,0x0F,0x03,0x00,0x00,0xC3,0xFF,0xFF,0xFF,0x3E,0x00,
  21            0x00,0x00,0xC0,0xFE,0xFF,0xFF,0x1F,0x1C,0x1C,0x1C,0x1C,0x1C,0x7E,0xFF,0xFF,0xF3,0xC1,0x00,0x00,0xC0,0xFE,
             -0xFF,0xFF,0xFF,0x03,0x00,0x00,0x00,0x30,0x38,0x38,0x38,
  22            0xF8,0xF8,0xF8,0xF8,0x18,0x00,0x00,0x00,0xC0,0xFE,0xFF,0xFF,0x1F,0x1C,0x1C,0x1C,0x1C,0x1C,0x1C,0x1C,0xFC,
             -0xFF,0xFF,0xFF,0x0F,0x00,0x00,0x00,0x00,0x00,0x00,0x00,
  23            0x00,0x00,0x00,0x00,0x00,0x38,0x3F,0x3F,0x3F,0x3B,0x38,0x38,0x38,0x38,0x38,0x1C,0x1F,0x1F,0x0F,0x07,0x01,
             -0x00,0x00,0x00,0x07,0x0F,0x1F,0x1F,0x1E,0x3C,0x38,0x38,
  24            0x38,0x38,0x38,0x3C,0x1F,0x1F,0x1F,0x01,0x00,0x00,0x00,0x00,0x03,0x87,0xEF,0xFF,0xFE,0x3F,0x3F,0x3B,0x38,
             -0x38,0x38,0x38,0x1C,0x1E,0x1F,0x0F,0x07,0x01,0x00,0x00,
  25            0x00,0x38,0x3F,0x3F,0x3F,0x3B,0x38,0x38,0x38,0x38,0x38,0x1C,0x1F,0x1F,0x0F,0x07,0x01,0x00,0x00,0x00,0x07,
             -0x0F,0x1F,0x1F,0x1E,0x3C,0x38,0x38,0x38,0x38,0x38,0x3C,
  26            0x1F,0x1F,0x1F,0x01,0x00,0x00,0x00,0x38,0x3F,0x3F,0x3F,0x03,0x00,0x00,0x00,0x00,0x00,0x00,0x00,0x3E,0x3F,
             -0x3F,0x3F,0x01,0x00,0x00,0x00,0x00,0x00,0x00,0x00,0x00,
  27            0x00,0x00,0x00,0x00,0x00,0x00,0x00,0x00,0x00,0x00,0x00,0x00,0xF0,0xF8,0x08,0x08,0x08,0x10,0xC0,0xE0,0x20,
             -0x20,0xE0,0xC0,0x00,0xE0,0xE0,0x20,0x20,0xE0,0xC0,0x00,
  28            0xE0,0xE0,0x00,0xE0,0xE0,0x00,0xE0,0xE0,0x20,0x20,0x00,0xEC,0xED,0x01,0xC1,0xE1,0x21,0xE0,0xE0,0x20,0xFC,
             -0xFC,0x20,0x20,0xE0,0xC0,0x00,0x20,0xF8,0xF8,0x20,0x00,
  29            0x00,0x00,0x00,0x00,0xF0,0x08,0xE4,0x14,0x14,0x14,0x04,0x08,0xF0,0x00,0x00,0x00,0x00,0x10,0x08,0x08,0x88,
             -0xF8,0x70,0x00,0xF0,0xF8,0x08,0x08,0xF8,0xF0,0x00,0x20,
  30            0x10,0xF8,0xF8,0x00,0x00,0x00,0x08,0x08,0x88,0xE8,0x78,0x18,0x00,0x00,0x00,0x00,0x00,0x00,0x00,0x00,0x00,
             -0x00,0x00,0x00,0x00,0x00,0x00,0x00,0x00,0x00,0x00,0x00,
  31            0x00,0x00,0x00,0x00,0x00,0x00,0x00,0x00,0x00,0x00,0x00,0x00,0x03,0x07,0x04,0x04,0x04,0x02,0x03,0x07,0x04,
             -0x04,0x07,0x03,0x00,0x1F,0x1F,0x04,0x04,0x07,0x03,0x00,
  32            0x00,0x1B,0x1E,0x07,0x00,0x00,0x07,0x07,0x00,0x00,0x00,0x07,0x07,0x00,0x1A,0x1F,0x15,0x1D,0x0C,0x00,0x07,
             -0x07,0x00,0x00,0x07,0x07,0x00,0x00,0x03,0x07,0x04,0x00,
C51 COMPILER V9.54   LQ12864                                                               08/30/2017 10:15:48 PAGE 2   

  33            0x00,0x00,0x00,0x00,0x01,0x02,0x04,0x05,0x05,0x05,0x04,0x02,0x01,0x00,0x00,0x00,0x00,0x04,0x06,0x07,0x05,
             -0x04,0x04,0x00,0x03,0x07,0x04,0x04,0x07,0x03,0x00,0x04,
  34            0x04,0x07,0x07,0x04,0x04,0x00,0x00,0x06,0x07,0x01,0x00,0x00,0x10,0x1E,0x0E,0x00,0x00,0x00,0x00,0x00,0x00,
             -0x00,0x00,0x00,0x00,0x00,0x00,0x00,0x00,0x00,0x00,0x00,
  35            0x00,0x00,0x00,0xFC,0xFC,0x24,0x24,0xFC,0xD8,0x00,0xF8,0xFC,0x04,0x44,0xC4,0xC8,0x00,0xF8,0xFC,0x84,0x64,
             -0xFC,0xFC,0x02,0x00,0xFC,0xFC,0x24,0x24,0xFC,0xD8,0x00,
  36            0xF8,0xFC,0x04,0x44,0xC4,0xC8,0x00,0x00,0xFC,0xFC,0x20,0x20,0xFC,0xFC,0x00,0x00,0x00,0x00,0x04,0x9C,0xF8,
             -0x60,0xF8,0x9C,0x04,0x00,0x00,0xFC,0xFC,0x00,0x00,0x00,
  37            0x00,0xFC,0xFC,0x00,0x00,0xFC,0xFC,0x00,0xF0,0xF0,0x10,0x10,0xF0,0xE0,0x00,0xF6,0xF6,0x00,0x70,0xF0,0x00,
             -0xF0,0x70,0x00,0xE0,0xF0,0x50,0x50,0x70,0x60,0x00,0xF0,
  38            0xF0,0x10,0x10,0x00,0x60,0xF0,0xD0,0x90,0x00,0xF6,0xF6,0x00,0x10,0xFC,0xFC,0x10,0x00,0x70,0xF0,0x00,0xF0,
             -0x70,0x00,0x00,0x00,0x00,0x00,0x00,0x00,0x00,0x00,0x00,
  39            0x00,0x00,0x00,0x03,0x03,0x02,0x02,0x03,0x01,0x00,0x01,0x03,0x02,0x02,0x03,0x03,0x08,0x07,0x03,0x02,0x02,
             -0x03,0x01,0x00,0x00,0x03,0x03,0x02,0x02,0x03,0x01,0x00,
  40            0x01,0x03,0x02,0x02,0x03,0x03,0x00,0x00,0x03,0x03,0x00,0x00,0x03,0x03,0x08,0x0F,0x07,0x00,0x02,0x03,0x01,
             -0x00,0x01,0x03,0x02,0x02,0x02,0x03,0x01,0x00,0x00,0x00,
  41            0x00,0x01,0x03,0x02,0x02,0x03,0x01,0x00,0x03,0x03,0x00,0x00,0x03,0x03,0x00,0x03,0x03,0x00,0x00,0x03,0x03,
             -0x03,0x00,0x00,0x01,0x03,0x02,0x02,0x02,0x02,0x00,0x03,
  42            0x03,0x00,0x00,0x00,0x02,0x02,0x03,0x01,0x00,0x03,0x03,0x00,0x00,0x01,0x03,0x02,0x00,0x00,0x0D,0x0F,0x03,
             -0x00,0x00,0x00,0x00,0x00,0x00,0x00,0x00,0x00,0x00,0x00
  43          };
  44            
  45          //unsigned char code F6x8[][6] =
  46          //{
  47          //    { 0x00, 0x00, 0x00, 0x00, 0x00, 0x00 },   // sp
  48          //    { 0x00, 0x00, 0x00, 0x2f, 0x00, 0x00 },   // !
  49          //    { 0x00, 0x00, 0x07, 0x00, 0x07, 0x00 },   // "
  50          //    { 0x00, 0x14, 0x7f, 0x14, 0x7f, 0x14 },   // #
  51          //    { 0x00, 0x24, 0x2a, 0x7f, 0x2a, 0x12 },   // $
  52          //    { 0x00, 0x62, 0x64, 0x08, 0x13, 0x23 },   // %
  53          //    { 0x00, 0x36, 0x49, 0x55, 0x22, 0x50 },   // &
  54          //    { 0x00, 0x00, 0x05, 0x03, 0x00, 0x00 },   // '
  55          //    { 0x00, 0x00, 0x1c, 0x22, 0x41, 0x00 },   // (
  56          //    { 0x00, 0x00, 0x41, 0x22, 0x1c, 0x00 },   // )
  57          //    { 0x00, 0x14, 0x08, 0x3E, 0x08, 0x14 },   // *
  58          //    { 0x00, 0x08, 0x08, 0x3E, 0x08, 0x08 },   // +
  59          //    { 0x00, 0x00, 0x00, 0xA0, 0x60, 0x00 },   // ,
  60          //    { 0x00, 0x08, 0x08, 0x08, 0x08, 0x08 },   // -
  61          //    { 0x00, 0x00, 0x60, 0x60, 0x00, 0x00 },   // .
  62          //    { 0x00, 0x20, 0x10, 0x08, 0x04, 0x02 },   // /
  63          //    { 0x00, 0x3E, 0x51, 0x49, 0x45, 0x3E },   // 0
  64          //    { 0x00, 0x00, 0x42, 0x7F, 0x40, 0x00 },   // 1
  65          //    { 0x00, 0x42, 0x61, 0x51, 0x49, 0x46 },   // 2
  66          //    { 0x00, 0x21, 0x41, 0x45, 0x4B, 0x31 },   // 3
  67          //    { 0x00, 0x18, 0x14, 0x12, 0x7F, 0x10 },   // 4
  68          //    { 0x00, 0x27, 0x45, 0x45, 0x45, 0x39 },   // 5
  69          //    { 0x00, 0x3C, 0x4A, 0x49, 0x49, 0x30 },   // 6
  70          //    { 0x00, 0x01, 0x71, 0x09, 0x05, 0x03 },   // 7
  71          //    { 0x00, 0x36, 0x49, 0x49, 0x49, 0x36 },   // 8
  72          //    { 0x00, 0x06, 0x49, 0x49, 0x29, 0x1E },   // 9
  73          //    { 0x00, 0x00, 0x36, 0x36, 0x00, 0x00 },   // :
  74          //    { 0x00, 0x00, 0x56, 0x36, 0x00, 0x00 },   // ;
  75          //    { 0x00, 0x08, 0x14, 0x22, 0x41, 0x00 },   // <
  76          //    { 0x00, 0x14, 0x14, 0x14, 0x14, 0x14 },   // =
  77          //    { 0x00, 0x00, 0x41, 0x22, 0x14, 0x08 },   // >
  78          //    { 0x00, 0x02, 0x01, 0x51, 0x09, 0x06 },   // ?
  79          //    { 0x00, 0x32, 0x49, 0x59, 0x51, 0x3E },   // @
  80          //    { 0x00, 0x7C, 0x12, 0x11, 0x12, 0x7C },   // A
  81          //    { 0x00, 0x7F, 0x49, 0x49, 0x49, 0x36 },   // B
  82          //    { 0x00, 0x3E, 0x41, 0x41, 0x41, 0x22 },   // C
  83          //    { 0x00, 0x7F, 0x41, 0x41, 0x22, 0x1C },   // D
  84          //    { 0x00, 0x7F, 0x49, 0x49, 0x49, 0x41 },   // E
C51 COMPILER V9.54   LQ12864                                                               08/30/2017 10:15:48 PAGE 3   

  85          //    { 0x00, 0x7F, 0x09, 0x09, 0x09, 0x01 },   // F
  86          //    { 0x00, 0x3E, 0x41, 0x49, 0x49, 0x7A },   // G
  87          //    { 0x00, 0x7F, 0x08, 0x08, 0x08, 0x7F },   // H
  88          //    { 0x00, 0x00, 0x41, 0x7F, 0x41, 0x00 },   // I
  89          //    { 0x00, 0x20, 0x40, 0x41, 0x3F, 0x01 },   // J
  90          //    { 0x00, 0x7F, 0x08, 0x14, 0x22, 0x41 },   // K
  91          //    { 0x00, 0x7F, 0x40, 0x40, 0x40, 0x40 },   // L
  92          //    { 0x00, 0x7F, 0x02, 0x0C, 0x02, 0x7F },   // M
  93          //    { 0x00, 0x7F, 0x04, 0x08, 0x10, 0x7F },   // N
  94          //    { 0x00, 0x3E, 0x41, 0x41, 0x41, 0x3E },   // O
  95          //    { 0x00, 0x7F, 0x09, 0x09, 0x09, 0x06 },   // P
  96          //    { 0x00, 0x3E, 0x41, 0x51, 0x21, 0x5E },   // Q
  97          //    { 0x00, 0x7F, 0x09, 0x19, 0x29, 0x46 },   // R
  98          //    { 0x00, 0x46, 0x49, 0x49, 0x49, 0x31 },   // S
  99          //    { 0x00, 0x01, 0x01, 0x7F, 0x01, 0x01 },   // T
 100          //    { 0x00, 0x3F, 0x40, 0x40, 0x40, 0x3F },   // U
 101          //    { 0x00, 0x1F, 0x20, 0x40, 0x20, 0x1F },   // V
 102          //    { 0x00, 0x3F, 0x40, 0x38, 0x40, 0x3F },   // W
 103          //    { 0x00, 0x63, 0x14, 0x08, 0x14, 0x63 },   // X
 104          //    { 0x00, 0x07, 0x08, 0x70, 0x08, 0x07 },   // Y
 105          //    { 0x00, 0x61, 0x51, 0x49, 0x45, 0x43 },   // Z
 106          //    { 0x00, 0x00, 0x7F, 0x41, 0x41, 0x00 },   // [
 107          //    { 0x00, 0x55, 0x2A, 0x55, 0x2A, 0x55 },   // 55
 108          //    { 0x00, 0x00, 0x41, 0x41, 0x7F, 0x00 },   // ]
 109          //    { 0x00, 0x04, 0x02, 0x01, 0x02, 0x04 },   // ^
 110          //    { 0x00, 0x40, 0x40, 0x40, 0x40, 0x40 },   // _
 111          //    { 0x00, 0x00, 0x00, 0x02, 0x05, 0x02 },   // 摄氏度的圈
 112          //    { 0x00, 0x20, 0x54, 0x54, 0x54, 0x78 },   // a
 113          //    { 0x00, 0x7F, 0x48, 0x44, 0x44, 0x38 },   // b
 114          //    { 0x00, 0x38, 0x44, 0x44, 0x44, 0x20 },   // c
 115          //    { 0x00, 0x38, 0x44, 0x44, 0x48, 0x7F },   // d
 116          //    { 0x00, 0x38, 0x54, 0x54, 0x54, 0x18 },   // e
 117          //    { 0x00, 0x08, 0x7E, 0x09, 0x01, 0x02 },   // f
 118          //    { 0x00, 0x18, 0xA4, 0xA4, 0xA4, 0x7C },   // g
 119          //    { 0x00, 0x7F, 0x08, 0x04, 0x04, 0x78 },   // h
 120          //    { 0x00, 0x00, 0x44, 0x7D, 0x40, 0x00 },   // i
 121          //    { 0x00, 0x40, 0x80, 0x84, 0x7D, 0x00 },   // j
 122          //    { 0x00, 0x7F, 0x10, 0x28, 0x44, 0x00 },   // k
 123          //    { 0x00, 0x00, 0x41, 0x7F, 0x40, 0x00 },   // l
 124          //    { 0x00, 0x7C, 0x04, 0x18, 0x04, 0x78 },   // m
 125          //    { 0x00, 0x7C, 0x08, 0x04, 0x04, 0x78 },   // n
 126          //    { 0x00, 0x38, 0x44, 0x44, 0x44, 0x38 },   // o
 127          //    { 0x00, 0xFC, 0x24, 0x24, 0x24, 0x18 },   // p
 128          //    { 0x00, 0x18, 0x24, 0x24, 0x18, 0xFC },   // q
 129          //    { 0x00, 0x7C, 0x08, 0x04, 0x04, 0x08 },   // r
 130          //    { 0x00, 0x48, 0x54, 0x54, 0x54, 0x20 },   // s
 131          //    { 0x00, 0x04, 0x3F, 0x44, 0x40, 0x20 },   // t
 132          //    { 0x00, 0x3C, 0x40, 0x40, 0x20, 0x7C },   // u
 133          //    { 0x00, 0x1C, 0x20, 0x40, 0x20, 0x1C },   // v
 134          //    { 0x00, 0x3C, 0x40, 0x30, 0x40, 0x3C },   // w
 135          //    { 0x00, 0x44, 0x28, 0x10, 0x28, 0x44 },   // x
 136          //    { 0x00, 0x1C, 0xA0, 0xA0, 0xA0, 0x7C },   // y
 137          //    { 0x00, 0x44, 0x64, 0x54, 0x4C, 0x44 },   // z
 138          //    { 0x14, 0x14, 0x14, 0x14, 0x14, 0x14 }    // horiz lines
 139          //};
 140          unsigned char code F14x16_Idx[] = 
 141          {
 142            "菜单温度时间其它设置最高休眠关屏工作模式烙铁头选择振动灵敏度蜂鸣器音量贷记整场通道工厂中校准调整电压编码
             -器每摄氏度按下一次请在保存转动放弃成功退出设定默认恢复步进参书短继续长已护"
 143          };
 144          unsigned char code F14x16[] = 
 145          { 
C51 COMPILER V9.54   LQ12864                                                               08/30/2017 10:15:48 PAGE 4   

 146            
 147          0x00,0x00,0x08,0xC8,0x48,0x3E,0x68,0xB8,0x2E,0x28,0xD8,0x08,0x04,0x00,
 148          0x00,0x44,0x44,0x24,0x14,0x0C,0x7F,0x04,0x0A,0x15,0x24,0x64,0x42,0x00,/*"菜",0*/
 149          
 150          0x00,0x00,0x00,0xF0,0x92,0x9C,0xF0,0x98,0x94,0x92,0xF0,0x00,0x00,0x00,
 151          0x00,0x08,0x0C,0x0B,0x0A,0x0A,0xFF,0x0A,0x0A,0x0A,0x0B,0x08,0x08,0x00,/*"单",1*/
 152          
 153          0x00,0x20,0x04,0xF8,0x10,0xFC,0x94,0x94,0x94,0x94,0xFC,0x00,0x00,0x00,
 154          0x00,0x00,0x7E,0x41,0x7E,0x42,0x7E,0x42,0x42,0x7E,0x42,0x7E,0x40,0x00,/*"温",2*/
 155          
 156          0x00,0x00,0xF8,0x48,0x48,0xE8,0x58,0x46,0x48,0xF8,0x48,0x28,0x00,0x00,
 157          0x40,0x38,0x87,0x80,0x80,0x44,0x4D,0x35,0x35,0x4D,0x42,0x40,0x40,0x00,/*"度",3*/
 158          
 159          0x00,0xF8,0x88,0x88,0xF8,0x20,0xA0,0x20,0x20,0x20,0xFE,0x20,0x00,0x00,
 160          0x00,0x3F,0x10,0x10,0x1F,0x00,0x00,0x03,0x00,0x40,0x3F,0x00,0x00,0x00,/*"时",4*/
 161          
 162          0x00,0x00,0xF8,0x04,0xC0,0x24,0x24,0x24,0xE4,0x04,0x04,0xFC,0x00,0x00,
 163          0x00,0x00,0x7F,0x00,0x06,0x09,0x09,0x09,0x0F,0x00,0x40,0x7F,0x00,0x00,/*"间",5*/
 164          
 165          0x00,0x08,0x08,0x08,0xFE,0x48,0x48,0x48,0x48,0xFE,0x08,0x08,0x08,0x00,
 166          0x00,0x80,0x48,0x28,0x1F,0x19,0x09,0x09,0x09,0x17,0x28,0x64,0x04,0x00,/*"其",6*/
 167          
 168          0x00,0x30,0x10,0x10,0xD0,0x10,0x0A,0x14,0x10,0x90,0x10,0x10,0x00,0x00,
 169          0x00,0x00,0x00,0x00,0x7F,0x44,0x42,0x42,0x41,0x40,0x40,0x70,0x00,0x00,/*"它",7*/
 170          
 171          0x00,0x40,0x42,0xCC,0x80,0x40,0xBC,0x84,0x84,0x84,0xBC,0xC0,0x20,0x00,
 172          0x00,0x00,0x00,0xBF,0x98,0x48,0x41,0x26,0x18,0x3C,0x23,0x40,0x40,0x00,/*"设",8*/
 173          
 174          0x00,0x00,0x5E,0xD4,0x54,0x5C,0xF4,0x54,0x5C,0x54,0xD4,0x3E,0x00,0x00,
 175          0x40,0x40,0x40,0x7F,0x6B,0x6B,0x6A,0x6B,0x6B,0x6B,0x7F,0x40,0x40,0x00,/*"置",9*/
 176          
 177          0x00,0x00,0x80,0xBE,0xAC,0xAC,0xAC,0xAC,0xAC,0xAC,0xBE,0x40,0x40,0x00,
 178          0x00,0x20,0x3A,0x25,0x15,0x15,0x7F,0x41,0x2F,0x11,0x2D,0x43,0x40,0x00,/*"最",10*/
 179          
 180          0x00,0x08,0x08,0x08,0xE8,0xA8,0xA6,0xA8,0xA8,0xF8,0x08,0x08,0x04,0x00,
 181          0x00,0x00,0x7F,0x02,0x2E,0x12,0x12,0x12,0x3E,0x42,0x42,0x7F,0x00,0x00,/*"高",11*/
 182          
 183          0x00,0x80,0x60,0xFC,0x22,0x20,0x20,0xE0,0xFE,0xE0,0x20,0x10,0x00,0x00,
 184          0x01,0x00,0x00,0x7F,0x18,0x04,0x03,0x00,0x7F,0x01,0x02,0x0C,0x08,0x00,/*"休",12*/
 185          
 186          0x00,0xFC,0x44,0xFC,0x04,0x00,0xFC,0x24,0xE4,0x24,0x24,0x3E,0x00,0x00,
 187          0x00,0x3F,0x22,0x1F,0x00,0x00,0x7F,0x11,0x11,0x0F,0x31,0x61,0x71,0x00,/*"眠",13*/
 188          
 189          0x00,0x00,0x20,0x20,0x22,0x2C,0xE0,0x10,0x28,0x26,0x20,0x10,0x00,0x00,
 190          0x00,0x80,0x42,0x22,0x12,0x0A,0x07,0x02,0x0E,0x12,0x22,0x41,0x41,0x00,/*"关",14*/
 191          
 192          0x00,0x00,0xFE,0x14,0x94,0x94,0xF4,0x94,0x94,0xF4,0xB4,0x9C,0x00,0x00,
 193          0x00,0x30,0x0F,0x84,0x44,0x34,0x0F,0x04,0x04,0x7F,0x04,0x04,0x04,0x00,/*"屏",15*/
 194          
 195          0x00,0x00,0x08,0x08,0x08,0x08,0xF8,0x08,0x08,0x08,0x08,0x0C,0x08,0x00,
 196          0x00,0x00,0x20,0x20,0x20,0x20,0x3F,0x20,0x20,0x20,0x20,0x20,0x20,0x00,/*"工",16*/
 197          
 198          0x00,0x80,0x60,0xDC,0x82,0x60,0x18,0xF6,0x10,0x10,0x10,0x90,0x00,0x00,
 199          0x00,0x00,0x00,0x7F,0x00,0x00,0x00,0x77,0x09,0x09,0x09,0x08,0x08,0x00,/*"作",17*/
 200          
 201          0x00,0x00,0xE0,0xFE,0x98,0x28,0xE8,0xBE,0xA8,0xA8,0xBE,0xE8,0x00,0x00,
 202          0x0C,0x03,0x00,0x7F,0x88,0x88,0x4B,0x2A,0x1E,0x1A,0x2A,0x4F,0x48,0x00,/*"模",18*/
 203          
 204          0x00,0x00,0x20,0x20,0x20,0x20,0xA0,0x2C,0xF2,0x20,0x24,0x18,0x10,0x00,
 205          0x00,0x60,0x21,0x21,0x1F,0x11,0x10,0x01,0x07,0x18,0x20,0x40,0x70,0x00,/*"式",19*/
 206          
 207          0x00,0xC0,0x00,0xFE,0x20,0x70,0x10,0x1E,0xA8,0xE8,0x18,0x08,0x00,0x00,
C51 COMPILER V9.54   LQ12864                                                               08/30/2017 10:15:48 PAGE 5   

 208          0x00,0x60,0x18,0x07,0x0C,0x14,0x7E,0x45,0x44,0x44,0x43,0x7F,0x00,0x00,/*"烙",20*/
 209          
 210          0x80,0x60,0x5C,0xD2,0x50,0xC8,0x38,0x20,0xA0,0x7E,0x20,0x10,0x00,0x00,
 211          0x00,0x02,0x02,0x3F,0x92,0x52,0x21,0x19,0x07,0x07,0x19,0x21,0x41,0x00,/*"铁",21*/
 212          
 213          0x00,0x00,0x20,0x44,0x88,0x18,0x00,0xFE,0x00,0x00,0x00,0x00,0x00,0x00,
 214          0x00,0x82,0x82,0x42,0x22,0x12,0x0E,0x0B,0x0A,0x12,0x12,0x22,0x42,0x00,/*"头",22*/
 215          
 216          0x00,0x00,0x84,0x48,0xC0,0xA0,0x9C,0x90,0xFE,0x90,0x90,0x90,0x80,0x00,
 217          0x00,0x20,0x1F,0x10,0x20,0x50,0x4E,0x41,0x40,0x5F,0x50,0x58,0x50,0x00,/*"选",23*/
 218          
 219          0x00,0x10,0x10,0xFE,0x90,0x90,0x84,0x9C,0x64,0xA4,0x5C,0x84,0x00,0x00,
 220          0x00,0x02,0x41,0x7F,0x00,0x00,0x12,0x12,0x7F,0x12,0x12,0x11,0x08,0x00,/*"择",24*/
 221          
 222          0x00,0x00,0x20,0xFE,0x10,0x20,0xFC,0xA4,0xA4,0xA4,0xA4,0x94,0x84,0x00,
 223          0x00,0x02,0x41,0x3F,0x41,0x3C,0x03,0x7F,0x20,0x23,0x1C,0x22,0x42,0x00,/*"振",25*/
 224          
 225          0x00,0x48,0x48,0xC8,0xC8,0x48,0x48,0x20,0xA0,0x7E,0x20,0x20,0xE0,0x00,
 226          0x00,0x1C,0x12,0x11,0x08,0x4C,0x38,0x10,0x0F,0x00,0x40,0x7C,0x03,0x00,/*"动",26*/
 227          
 228          0x00,0x00,0x00,0x44,0x54,0x54,0xD4,0x54,0x54,0x54,0x7E,0x00,0x00,0x00,
 229          0x00,0x00,0x44,0x47,0x20,0x1C,0x03,0x04,0x1C,0x22,0x21,0x40,0x40,0x00,/*"灵",27*/
 230          
 231          0x00,0x30,0xEC,0x2A,0xE8,0x28,0xE8,0xE8,0xF0,0x2E,0x20,0xE0,0x10,0x00,
 232          0x00,0x18,0x17,0x12,0x5E,0x52,0x3F,0x51,0x22,0x27,0x1E,0x21,0x40,0x00,/*"敏",28*/
 233          
 234          0x00,0x00,0xF8,0x48,0x48,0xE8,0x58,0x46,0x48,0xF8,0x48,0x28,0x00,0x00,
 235          0x40,0x38,0x87,0x80,0x80,0x44,0x4D,0x35,0x35,0x4D,0x42,0x40,0x40,0x00,/*"度",29*/
 236          
 237          0x00,0xE0,0x20,0xFE,0xE0,0x20,0x10,0x8C,0x5A,0xA8,0x58,0x8C,0x80,0x00,
 238          0x00,0x27,0x24,0x1F,0x1F,0x31,0x21,0x22,0x2A,0x7F,0x2A,0x25,0x10,0x00,/*"蜂",30*/
 239          
 240          0x00,0xF8,0x08,0x08,0xF8,0x00,0xF8,0x04,0x1A,0xA8,0xE8,0x18,0x00,0x00,
 241          0x00,0x0F,0x02,0x02,0x07,0x10,0x13,0x12,0x12,0x0B,0xCA,0x7A,0x06,0x00,/*"鸣",31*/
 242          
 243          0x00,0x80,0xBC,0xA4,0xA4,0xBC,0xC0,0x80,0xBC,0xE4,0x9C,0x84,0x80,0x00,
 244          0x00,0x08,0x3C,0x44,0x4A,0x3D,0x00,0x7C,0x49,0x4A,0x5A,0x64,0x04,0x00,/*"器",32*/
 245          
 246          0x00,0x80,0x88,0x88,0x98,0x68,0x8A,0x8C,0x68,0x98,0x88,0x88,0x40,0x00,
 247          0x00,0x00,0x00,0x36,0x4A,0x4A,0x4A,0x4A,0x4A,0x4A,0x7E,0x00,0x00,0x00,/*"音",33*/
 248          
 249          0x00,0x40,0x40,0xFE,0x64,0x64,0x64,0x64,0x64,0x64,0xDE,0x40,0x60,0x00,
 250          0x00,0x00,0x40,0x6F,0x6B,0x6B,0x7F,0x6B,0x6B,0x6B,0x5F,0x40,0x40,0x00,/*"量",34*/
 251          
 252          
 253          0x00,0x10,0x8C,0x62,0x24,0x24,0x24,0x24,0x3F,0x24,0xA4,0x24,0x20,0x00,
 254          0x00,0x03,0x7F,0x00,0x01,0x05,0x09,0x11,0x41,0x41,0x7F,0x01,0x01,0x00,/*"待",35*/
 255          
 256          0x00,0x10,0xD0,0xFE,0x50,0x90,0x00,0xFC,0x04,0x04,0x04,0xFC,0x00,0x00,
 257          0x04,0x03,0x00,0x3F,0x00,0x21,0x18,0x07,0x00,0x00,0x00,0x3F,0x20,0x30,/*"机",36*/
 258          
 259          0x00,0x00,0x02,0xE2,0x22,0x02,0x02,0xFE,0x82,0x82,0x82,0x42,0x02,0x00,
 260          0x00,0x20,0x20,0x1F,0x20,0x20,0x20,0x1F,0x20,0x20,0x20,0x10,0x00,0x00,/*"正",0*/
 261          
 262          0x00,0x30,0x08,0x19,0xEE,0xA8,0xAE,0xA9,0xAC,0xFA,0x08,0x18,0x08,0x00,
 263          0x00,0x00,0x00,0x1E,0x02,0x02,0x3F,0x02,0x02,0x12,0x1E,0x02,0x00,0x00,/*"常",1*/
 264          
 265          0x00,0x40,0xCC,0x40,0x00,0xF0,0xA4,0xA4,0xFC,0xA4,0xA4,0xF0,0x00,0x00,
 266          0x00,0x20,0x1F,0x10,0x20,0x5F,0x42,0x42,0x5F,0x42,0x42,0x5F,0x40,0x00,/*"通",2*/
 267          
 268          0x00,0x40,0xC4,0x48,0x10,0x10,0xCA,0x34,0x50,0x48,0xD6,0x10,0x08,0x00,
 269          0x00,0x20,0x1F,0x10,0x20,0x40,0x5F,0x55,0x55,0x55,0x4F,0x40,0x40,0x00,/*"道",3*/
C51 COMPILER V9.54   LQ12864                                                               08/30/2017 10:15:48 PAGE 6   

 270          
 271          0x00,0x00,0x08,0x08,0x08,0x08,0xF8,0x08,0x08,0x08,0x08,0x0C,0x08,0x00,
 272          0x00,0x00,0x20,0x20,0x20,0x20,0x3F,0x20,0x20,0x20,0x20,0x20,0x20,0x00,/*"工",4*/
 273          
 274          0x00,0x00,0xF8,0x04,0x04,0x04,0x04,0x04,0x04,0x04,0x04,0x04,0x04,0x00,
 275          0x00,0x60,0x1F,0x00,0x00,0x00,0x00,0x00,0x00,0x00,0x00,0x00,0x00,0x00,/*"厂",5*/
 276          
 277          0x00,0x00,0xF8,0x10,0x10,0x10,0xFF,0x11,0x10,0x10,0x10,0xF8,0x00,0x00,
 278          0x00,0x00,0x01,0x01,0x01,0x01,0x7F,0x01,0x01,0x01,0x01,0x01,0x00,0x00,/*"中",0*/
 279          
 280          
 281          0x00,0x00,0xD0,0xFF,0x48,0x88,0xC8,0x38,0x07,0x0A,0x98,0x28,0x44,0x00,
 282          0x00,0x03,0x00,0x3F,0x40,0x40,0x20,0x17,0x08,0x16,0x11,0x20,0x20,0x00,/*"校",0*/
 283          
 284          0x00,0x02,0xCC,0x78,0x24,0xF8,0x4F,0x48,0x49,0xFE,0x48,0x28,0x08,0x00,
 285          0x00,0x11,0x1F,0x00,0x00,0x3D,0x22,0x22,0x22,0x1F,0x22,0x22,0x12,0x00,/*"准",1*/
 286          
 287          0x00,0x40,0xC4,0x4C,0x00,0xF8,0x04,0x04,0x7C,0xA4,0x94,0xFC,0x04,0x00,
 288          0x00,0x00,0x0F,0x30,0x48,0x3F,0x00,0x1F,0x12,0x12,0x0E,0x7F,0x00,0x00,/*"调",2*/
 289          
 290          0x00,0x00,0x78,0xD8,0xFE,0xD8,0x74,0x38,0x3C,0xCA,0xE8,0x18,0x08,0x00,
 291          0x00,0x42,0x45,0x42,0x75,0x44,0x7F,0x52,0x55,0x54,0x4A,0x43,0x40,0x00,/*"整",3*/
 292          
 293          0x00,0x00,0xF0,0x90,0x90,0x90,0xFE,0x90,0x90,0x90,0xF0,0x10,0x00,0x00,
 294          0x00,0x00,0x0F,0x04,0x04,0x04,0x7F,0x44,0x44,0x44,0x4F,0x50,0x60,0x00,/*"电",4*/
 295          
 296          0x00,0x00,0xFC,0x04,0x04,0x04,0x04,0xFC,0x04,0x04,0x04,0x86,0x04,0x00,
 297          0x00,0x20,0x5F,0x40,0x40,0x41,0x41,0x3F,0x41,0x43,0x4D,0x40,0x20,0x00,/*"压",5*/
 298          
 299          0x00,0x60,0xD8,0x44,0x30,0xF0,0x48,0x48,0x4A,0x4C,0x48,0x38,0x00,0x00,
 300          0x00,0x16,0x15,0x54,0x32,0x0E,0x7F,0x09,0x3F,0x09,0x7F,0x49,0x7F,0x00,/*"编",6*/
 301          
 302          0x00,0x04,0xFC,0x44,0xC4,0x04,0x04,0xFC,0x04,0x04,0xE4,0x1C,0x00,0x00,
 303          0x02,0x01,0x3F,0x10,0x1F,0x08,0x08,0x09,0x09,0x49,0x45,0x71,0x0F,0x00,/*"码",7*/
 304          
 305          0x00,0x80,0xBC,0xA4,0xA4,0xBC,0xC0,0x80,0xBC,0xE4,0x9C,0x84,0x80,0x00,
 306          0x00,0x08,0x3C,0x44,0x4A,0x3D,0x00,0x7C,0x49,0x4A,0x5A,0x64,0x04,0x00,/*"器",8*/
 307          
 308          0x00,0x20,0x10,0xFC,0x2A,0x28,0x68,0xE8,0x28,0x28,0xF8,0x04,0x00,0x00,
 309          0x00,0x01,0x11,0x1F,0x11,0x11,0x13,0x1D,0x51,0x51,0x3F,0x11,0x11,0x00,/*"每",0*/
 310          
 311          0x00,0x10,0x10,0xFE,0x90,0x80,0x5C,0xB4,0xB4,0xB4,0xFC,0x84,0x40,0x00,
 312          0x00,0x03,0x41,0x7F,0x42,0x26,0x1A,0x36,0x42,0x2E,0x19,0x26,0x42,0x00,/*"摄",1*/
 313          
 314          0x00,0x00,0xF8,0x88,0x88,0x88,0x98,0xE4,0x84,0x84,0x84,0x40,0x00,0x00,
 315          0x00,0x00,0x3F,0x20,0x20,0x10,0x10,0x03,0x0C,0x10,0x20,0x40,0x78,0x00,/*"氏",2*/
 316          
 317          0x00,0x00,0xF8,0x48,0x48,0xE8,0x58,0x46,0x48,0xF8,0x48,0x28,0x00,0x00,
 318          0x40,0x38,0x87,0x80,0x80,0x44,0x4D,0x35,0x35,0x4D,0x42,0x40,0x40,0x00,/*"度",3*/
 319          
 320          0x00,0x00,0x20,0xFE,0x90,0x20,0x18,0x90,0x6A,0x14,0x10,0x30,0x18,0x00,
 321          0x00,0x02,0x41,0x7F,0x80,0x81,0x47,0x49,0x31,0x19,0x17,0x21,0x40,0x00,/*"按",4*/
 322          
 323          0x00,0x00,0x08,0x08,0x08,0x08,0xF8,0x48,0x88,0x88,0x08,0x04,0x04,0x00,
 324          0x00,0x00,0x00,0x00,0x00,0x00,0x7F,0x00,0x00,0x00,0x01,0x00,0x00,0x00,/*"下",5*/
 325          
 326          0x00,0x80,0x80,0x80,0x80,0x80,0x80,0x80,0x80,0x80,0x80,0x80,0x80,0x00,
 327          0x00,0x00,0x00,0x00,0x00,0x00,0x00,0x00,0x00,0x00,0x00,0x00,0x00,0x00,/*"一",6*/
 328          
 329          0x00,0x00,0x04,0xF8,0x10,0xC0,0x30,0x2E,0xE0,0x20,0x20,0x20,0x10,0x00,
 330          0x00,0x00,0x3F,0x80,0x41,0x20,0x10,0x0E,0x01,0x0E,0x10,0x60,0x40,0x00,/*"次",7*/
 331          
C51 COMPILER V9.54   LQ12864                                                               08/30/2017 10:15:48 PAGE 7   

 332          0x00,0x40,0xC4,0x48,0x80,0x88,0x88,0xA8,0x7E,0xAA,0xA8,0x98,0x40,0x00,
 333          0x00,0x00,0x2F,0x30,0x08,0x00,0x7F,0x15,0x15,0x15,0x55,0x7F,0x00,0x00,/*"请",8*/
 334          
 335          0x00,0x00,0x10,0x90,0x70,0x18,0x16,0x10,0xF0,0x10,0x10,0x88,0x00,0x00,
 336          0x04,0x02,0x02,0x7F,0x40,0x41,0x41,0x41,0x3F,0x41,0x41,0x21,0x20,0x00,/*"在",9*/
 337          
 338          0x00,0x80,0xE0,0x3C,0x02,0x00,0x7C,0x44,0xC4,0x44,0x44,0x7C,0x00,0x00,
 339          0x00,0x00,0x7F,0x80,0x40,0x22,0x1A,0x06,0x7F,0x06,0x0A,0x12,0x21,0x00,/*"保",10*/
 340          
 341          0x00,0x08,0x08,0x88,0x68,0x18,0x26,0x28,0x28,0xA8,0x68,0x24,0x00,0x00,
 342          0x00,0x04,0x03,0xFF,0x00,0x00,0x04,0x44,0x7F,0x04,0x04,0x04,0x02,0x00,/*"存",11*/
 343          
 344          0x00,0x80,0x78,0xF6,0x10,0x88,0x90,0x90,0xF0,0x8E,0x90,0x90,0x40,0x00,
 345          0x00,0x08,0x09,0xFF,0x09,0x04,0x04,0x13,0x22,0x32,0x4A,0x06,0x00,0x00,/*"转",12*/
 346          
 347          0x00,0x48,0x48,0xC8,0xC8,0x48,0x48,0x20,0xA0,0x7E,0x20,0x20,0xE0,0x00,
 348          0x00,0x1C,0x12,0x11,0x08,0x4C,0x38,0x10,0x0F,0x00,0x40,0x7C,0x03,0x00,/*"动",13*/
 349          
 350          0x00,0x10,0x70,0x94,0x9C,0x90,0x90,0x60,0x9C,0x12,0x90,0x70,0x10,0x00,
 351          0x00,0x20,0x1F,0x20,0x60,0xBF,0x40,0x20,0x13,0x0C,0x13,0x20,0x40,0x00,/*"放",14*/
 352          
 353          0x00,0x08,0x08,0xC8,0xA8,0x98,0x9E,0x88,0x88,0x68,0x48,0x0C,0x08,0x00,
 354          0x00,0x84,0x44,0x24,0x1C,0x07,0x04,0x04,0x7F,0x04,0x04,0x04,0x04,0x00,/*"弃",15*/
 355          
 356          0x00,0x00,0xF0,0x10,0x10,0x10,0x10,0x7E,0x94,0x12,0x1C,0xD0,0x10,0x00,
 357          0x00,0x70,0x0F,0x11,0x11,0x3F,0x40,0x20,0x17,0x1C,0x33,0x60,0x70,0x00,/*"成",16*/
 358          
 359          0x00,0x00,0x10,0xF0,0x10,0x10,0x28,0x20,0xF0,0x2E,0x20,0x20,0xE0,0x00,
 360          0x00,0x10,0x08,0x0F,0x88,0x44,0x20,0x18,0x07,0x40,0x40,0x7E,0x01,0x00,/*"功",17*/
 361          
 362          0x00,0x00,0x84,0xC8,0x00,0x00,0xFC,0xA4,0xA4,0xA4,0xFC,0x04,0x00,0x00,
 363          0x00,0x20,0x10,0x1F,0x20,0x20,0x5F,0x4A,0x42,0x42,0x46,0x49,0x00,0x00,/*"退",18*/
 364          
 365          0x00,0x00,0xF0,0x80,0x80,0x80,0xFC,0x80,0x80,0x80,0xF0,0x08,0x00,0x00,
 366          0x00,0x00,0x7E,0x40,0x40,0x40,0x3F,0x40,0x40,0x40,0x43,0x7C,0x00,0x00,/*"出",19*/
 367          0x00,0x40,0x42,0xCC,0x80,0x40,0xBC,0x84,0x84,0x84,0xBC,0xC0,0x20,0x00,
 368          
 369          0x00,0x00,0x00,0xBF,0x98,0x48,0x41,0x26,0x18,0x3C,0x23,0x40,0x40,0x00,/*"设",0*/
 370          
 371          0x00,0x20,0x38,0x90,0x90,0x90,0x8A,0x94,0x90,0x90,0x70,0x50,0x00,0x00,
 372          0x00,0x40,0x30,0x0F,0x10,0x20,0x3B,0x44,0x44,0x44,0x46,0x44,0x00,0x00,/*"定",1*/
 373          
 374          0x00,0x7C,0x5C,0xFC,0x54,0xFC,0x40,0x40,0x40,0xFE,0x44,0x58,0x20,0x00,
 375          0x00,0x79,0x19,0x67,0x15,0xA5,0x59,0x30,0x0F,0x01,0x0E,0x30,0x40,0x00,/*"默",0*/
 376          
 377          0x00,0x00,0x80,0xCC,0x00,0x00,0x00,0x00,0xFC,0x00,0x00,0x00,0x00,0x00,
 378          0x00,0x00,0x00,0xBF,0x48,0x24,0x10,0x0F,0x00,0x07,0x18,0x20,0x40,0x00,/*"认",1*/
 379          
 380          0x00,0xE0,0xFC,0x12,0x70,0x10,0xF0,0x1E,0x10,0xF0,0x10,0x10,0x08,0x00,
 381          0x00,0x00,0x7F,0x00,0x08,0x47,0x20,0x13,0x0E,0x05,0x1A,0x21,0x40,0x00,/*"恢",0*/
 382          
 383          0x00,0x20,0x10,0x08,0xF6,0x58,0x58,0x58,0x58,0x58,0xF8,0x04,0x00,0x00,
 384          0x00,0x80,0x90,0x88,0x45,0x4F,0x35,0x15,0x3D,0x4F,0x45,0x40,0x40,0x00,/*"复",1*/
 385          
 386          0x00,0x00,0x80,0x78,0x80,0x80,0x80,0xFE,0x88,0x88,0x88,0x48,0x40,0x00,
 387          0x00,0x90,0x88,0x84,0x42,0x40,0x20,0x2F,0x10,0x08,0x04,0x03,0x00,0x00,/*"步",0*/
 388          
 389          0x00,0x80,0x84,0x48,0x10,0x10,0x10,0xFC,0x10,0xFC,0x10,0x10,0x10,0x00,
 390          0x00,0x60,0x2F,0x10,0x21,0x51,0x4F,0x41,0x41,0x7F,0x41,0x41,0x41,0x00,/*"进",1*/
 391          
 392          0x00,0x40,0x40,0x58,0xD8,0x74,0xD2,0x50,0xD4,0x48,0x58,0x70,0x40,0x00,
 393          0x00,0x04,0x4A,0x69,0x54,0x52,0x49,0x24,0x26,0x11,0x09,0x02,0x02,0x00,/*"参",0*/
C51 COMPILER V9.54   LQ12864                                                               08/30/2017 10:15:48 PAGE 8   

 394          
 395          0x00,0x00,0xAC,0x60,0xFE,0x68,0xE4,0xE0,0xFC,0x22,0x20,0xE0,0x10,0x00,
 396          0x00,0x01,0x4C,0x57,0x34,0x1C,0xA7,0x40,0x23,0x1C,0x3F,0x60,0x40,0x00,/*"数",1*/
 397          
 398          0x00,0x20,0x1C,0xF2,0x10,0x90,0x04,0xE4,0x24,0x24,0x24,0xE4,0x04,0x00,
 399          0x00,0x41,0x31,0x0F,0x09,0x50,0x45,0x7B,0x42,0x62,0x5E,0x43,0x40,0x00,/*"短",0*/
 400          
 401          0x00,0x60,0x98,0x84,0x60,0x20,0xFC,0x90,0xA0,0xFE,0xA0,0x98,0x00,0x00,
 402          0x00,0x64,0x27,0x24,0x20,0x40,0x7F,0x4C,0x42,0x7F,0x42,0x44,0x40,0x00,/*"继",1*/
 403          
 404          0x00,0x60,0x58,0xC4,0x30,0x20,0x28,0xA8,0x7E,0xAA,0x28,0x68,0x20,0x00,
 405          0x00,0x24,0x27,0x24,0xA4,0x81,0x4A,0x28,0x1F,0x18,0x28,0x68,0x04,0x00,/*"续",2*/
 406          
 407          0x00,0x80,0x80,0xFC,0x80,0xC0,0xA0,0x90,0x88,0x84,0x84,0x80,0x80,0x00,
 408          0x00,0x00,0x00,0x3F,0x40,0x20,0x21,0x16,0x08,0x18,0x10,0x20,0x20,0x00,/*"长",3*/
 409          
 410          0x00,0x00,0xE4,0x84,0x84,0x84,0x84,0x84,0x84,0x84,0xFC,0x00,0x00,0x00,
 411          0x00,0x00,0x1F,0x20,0x40,0x40,0x40,0x40,0x40,0x40,0x40,0x38,0x20,0x00,/*"已",0*/
 412          
 413          0x00,0x00,0x20,0xFE,0x20,0x90,0xF0,0x10,0x12,0x0C,0x10,0x10,0xF0,0x00,
 414          0x00,0x02,0x41,0x7F,0x41,0x30,0x0F,0x01,0x01,0x01,0x01,0x01,0x01,0x00,/*"护",0*/
 415          };
 416          
 417          //======================================================
 418          // 128X64I液晶底层驱动[8X16]字体库
 419          // 设计者: powerint
 420          // 描  述: [8X16]西文字符的字模数据 (纵向取模,字节倒序)
 421          // !"#$%&'()*+,-./0123456789:;<=>?@ABCDEFGHIJKLMNOPQRSTUVWXYZ[\]^_`abcdefghijklmnopqrstuvwxyz{|}~
 422          //======================================================
 423          unsigned char code F8X16[]=
 424          {
 425            0x00,0x00,0x00,0x00,0x00,0x00,0x00,0x00,0x00,0x00,0x00,0x00,0x00,0x00,0x00,0x00,// 0
 426            0x00,0x00,0x00,0xF8,0x00,0x00,0x00,0x00,0x00,0x00,0x00,0x33,0x30,0x00,0x00,0x00,//!1
 427            0x00,0x10,0x0C,0x06,0x10,0x0C,0x06,0x00,0x00,0x00,0x00,0x00,0x00,0x00,0x00,0x00,//"2
 428            0x40,0xC0,0x78,0x40,0xC0,0x78,0x40,0x00,0x04,0x3F,0x04,0x04,0x3F,0x04,0x04,0x00,//#3
 429            0x00,0x70,0x88,0xFC,0x08,0x30,0x00,0x00,0x00,0x18,0x20,0xFF,0x21,0x1E,0x00,0x00,//$4
 430            0xF0,0x08,0xF0,0x00,0xE0,0x18,0x00,0x00,0x00,0x21,0x1C,0x03,0x1E,0x21,0x1E,0x00,//%5
 431            0x00,0xF0,0x08,0x88,0x70,0x00,0x00,0x00,0x1E,0x21,0x23,0x24,0x19,0x27,0x21,0x10,//&6
 432            0x10,0x16,0x0E,0x00,0x00,0x00,0x00,0x00,0x00,0x00,0x00,0x00,0x00,0x00,0x00,0x00,//'7
 433            0x00,0x00,0x00,0xE0,0x18,0x04,0x02,0x00,0x00,0x00,0x00,0x07,0x18,0x20,0x40,0x00,//(8
 434            0x00,0x02,0x04,0x18,0xE0,0x00,0x00,0x00,0x00,0x40,0x20,0x18,0x07,0x00,0x00,0x00,//)9
 435            0x40,0x40,0x80,0xF0,0x80,0x40,0x40,0x00,0x02,0x02,0x01,0x0F,0x01,0x02,0x02,0x00,//*10
 436            0x00,0x00,0x00,0xF0,0x00,0x00,0x00,0x00,0x01,0x01,0x01,0x1F,0x01,0x01,0x01,0x00,//+11
 437            0x00,0x00,0x00,0x00,0x00,0x00,0x00,0x00,0x80,0xB0,0x70,0x00,0x00,0x00,0x00,0x00,//,12
 438            0x00,0x00,0x00,0x00,0x00,0x00,0x00,0x00,0x00,0x01,0x01,0x01,0x01,0x01,0x01,0x01,//-13
 439            0x00,0x00,0x00,0x00,0x00,0x00,0x00,0x00,0x00,0x30,0x30,0x00,0x00,0x00,0x00,0x00,//.14
 440            0x00,0x00,0x00,0x00,0x80,0x60,0x18,0x04,0x00,0x60,0x18,0x06,0x01,0x00,0x00,0x00,///15
 441            0x00,0xE0,0x10,0x08,0x08,0x10,0xE0,0x00,0x00,0x0F,0x10,0x20,0x20,0x10,0x0F,0x00,//016
 442            0x00,0x10,0x10,0xF8,0x00,0x00,0x00,0x00,0x00,0x20,0x20,0x3F,0x20,0x20,0x00,0x00,//117
 443            0x00,0x70,0x08,0x08,0x08,0x88,0x70,0x00,0x00,0x30,0x28,0x24,0x22,0x21,0x30,0x00,//218
 444            0x00,0x30,0x08,0x88,0x88,0x48,0x30,0x00,0x00,0x18,0x20,0x20,0x20,0x11,0x0E,0x00,//319
 445            0x00,0x00,0xC0,0x20,0x10,0xF8,0x00,0x00,0x00,0x07,0x04,0x24,0x24,0x3F,0x24,0x00,//420
 446            0x00,0xF8,0x08,0x88,0x88,0x08,0x08,0x00,0x00,0x19,0x21,0x20,0x20,0x11,0x0E,0x00,//521
 447            0x00,0xE0,0x10,0x88,0x88,0x18,0x00,0x00,0x00,0x0F,0x11,0x20,0x20,0x11,0x0E,0x00,//622
 448            0x00,0x38,0x08,0x08,0xC8,0x38,0x08,0x00,0x00,0x00,0x00,0x3F,0x00,0x00,0x00,0x00,//723
 449            0x00,0x70,0x88,0x08,0x08,0x88,0x70,0x00,0x00,0x1C,0x22,0x21,0x21,0x22,0x1C,0x00,//824
 450            0x00,0xE0,0x10,0x08,0x08,0x10,0xE0,0x00,0x00,0x00,0x31,0x22,0x22,0x11,0x0F,0x00,//925
 451            0x00,0x00,0x00,0xC0,0xC0,0x00,0x00,0x00,0x00,0x00,0x00,0x30,0x30,0x00,0x00,0x00,//:26
 452            0x00,0x00,0x00,0x80,0x00,0x00,0x00,0x00,0x00,0x00,0x80,0x60,0x00,0x00,0x00,0x00,//;27
 453            0x00,0x00,0x80,0x40,0x20,0x10,0x08,0x00,0x00,0x01,0x02,0x04,0x08,0x10,0x20,0x00,//<28
 454            0x40,0x40,0x40,0x40,0x40,0x40,0x40,0x00,0x04,0x04,0x04,0x04,0x04,0x04,0x04,0x00,//=29
 455            0x00,0x08,0x10,0x20,0x40,0x80,0x00,0x00,0x00,0x20,0x10,0x08,0x04,0x02,0x01,0x00,//>30
C51 COMPILER V9.54   LQ12864                                                               08/30/2017 10:15:48 PAGE 9   

 456            0x00,0x70,0x48,0x08,0x08,0x08,0xF0,0x00,0x00,0x00,0x00,0x30,0x36,0x01,0x00,0x00,//?31
 457            0xC0,0x30,0xC8,0x28,0xE8,0x10,0xE0,0x00,0x07,0x18,0x27,0x24,0x23,0x14,0x0B,0x00,//@32
 458            0x00,0x00,0xC0,0x38,0xE0,0x00,0x00,0x00,0x20,0x3C,0x23,0x02,0x02,0x27,0x38,0x20,//A33
 459            0x08,0xF8,0x88,0x88,0x88,0x70,0x00,0x00,0x20,0x3F,0x20,0x20,0x20,0x11,0x0E,0x00,//B34
 460            0xC0,0x30,0x08,0x08,0x08,0x08,0x38,0x00,0x07,0x18,0x20,0x20,0x20,0x10,0x08,0x00,//C35
 461            0x08,0xF8,0x08,0x08,0x08,0x10,0xE0,0x00,0x20,0x3F,0x20,0x20,0x20,0x10,0x0F,0x00,//D36
 462            0x08,0xF8,0x88,0x88,0xE8,0x08,0x10,0x00,0x20,0x3F,0x20,0x20,0x23,0x20,0x18,0x00,//E37
 463            0x08,0xF8,0x88,0x88,0xE8,0x08,0x10,0x00,0x20,0x3F,0x20,0x00,0x03,0x00,0x00,0x00,//F38
 464            0xC0,0x30,0x08,0x08,0x08,0x38,0x00,0x00,0x07,0x18,0x20,0x20,0x22,0x1E,0x02,0x00,//G39
 465            0x08,0xF8,0x08,0x00,0x00,0x08,0xF8,0x08,0x20,0x3F,0x21,0x01,0x01,0x21,0x3F,0x20,//H40
 466            0x00,0x08,0x08,0xF8,0x08,0x08,0x00,0x00,0x00,0x20,0x20,0x3F,0x20,0x20,0x00,0x00,//I41
 467            0x00,0x00,0x08,0x08,0xF8,0x08,0x08,0x00,0xC0,0x80,0x80,0x80,0x7F,0x00,0x00,0x00,//J42
 468            0x08,0xF8,0x88,0xC0,0x28,0x18,0x08,0x00,0x20,0x3F,0x20,0x01,0x26,0x38,0x20,0x00,//K43
 469            0x08,0xF8,0x08,0x00,0x00,0x00,0x00,0x00,0x20,0x3F,0x20,0x20,0x20,0x20,0x30,0x00,//L44
 470            0x08,0xF8,0xF8,0x00,0xF8,0xF8,0x08,0x00,0x20,0x3F,0x00,0x3F,0x00,0x3F,0x20,0x00,//M45
 471            0x08,0xF8,0x30,0xC0,0x00,0x08,0xF8,0x08,0x20,0x3F,0x20,0x00,0x07,0x18,0x3F,0x00,//N46
 472            0xE0,0x10,0x08,0x08,0x08,0x10,0xE0,0x00,0x0F,0x10,0x20,0x20,0x20,0x10,0x0F,0x00,//O47
 473            0x08,0xF8,0x08,0x08,0x08,0x08,0xF0,0x00,0x20,0x3F,0x21,0x01,0x01,0x01,0x00,0x00,//P48
 474            0xE0,0x10,0x08,0x08,0x08,0x10,0xE0,0x00,0x0F,0x18,0x24,0x24,0x38,0x50,0x4F,0x00,//Q49
 475            0x08,0xF8,0x88,0x88,0x88,0x88,0x70,0x00,0x20,0x3F,0x20,0x00,0x03,0x0C,0x30,0x20,//R50
 476            0x00,0x70,0x88,0x08,0x08,0x08,0x38,0x00,0x00,0x38,0x20,0x21,0x21,0x22,0x1C,0x00,//S51
 477            0x18,0x08,0x08,0xF8,0x08,0x08,0x18,0x00,0x00,0x00,0x20,0x3F,0x20,0x00,0x00,0x00,//T52
 478            0x08,0xF8,0x08,0x00,0x00,0x08,0xF8,0x08,0x00,0x1F,0x20,0x20,0x20,0x20,0x1F,0x00,//U53
 479            0x08,0x78,0x88,0x00,0x00,0xC8,0x38,0x08,0x00,0x00,0x07,0x38,0x0E,0x01,0x00,0x00,//V54
 480            0xF8,0x08,0x00,0xF8,0x00,0x08,0xF8,0x00,0x03,0x3C,0x07,0x00,0x07,0x3C,0x03,0x00,//W55
 481            0x08,0x18,0x68,0x80,0x80,0x68,0x18,0x08,0x20,0x30,0x2C,0x03,0x03,0x2C,0x30,0x20,//X56
 482            0x08,0x38,0xC8,0x00,0xC8,0x38,0x08,0x00,0x00,0x00,0x20,0x3F,0x20,0x00,0x00,0x00,//Y57
 483            0x10,0x08,0x08,0x08,0xC8,0x38,0x08,0x00,0x20,0x38,0x26,0x21,0x20,0x20,0x18,0x00,//Z58
 484            0x00,0x00,0x00,0xFE,0x02,0x02,0x02,0x00,0x00,0x00,0x00,0x7F,0x40,0x40,0x40,0x00,//[59
 485            0x00,0x0C,0x30,0xC0,0x00,0x00,0x00,0x00,0x00,0x00,0x00,0x01,0x06,0x38,0xC0,0x00,//\60
 486            0x00,0x02,0x02,0x02,0xFE,0x00,0x00,0x00,0x00,0x40,0x40,0x40,0x7F,0x00,0x00,0x00,//]61
 487            0x00,0x00,0x04,0x02,0x02,0x02,0x04,0x00,0x00,0x00,0x00,0x00,0x00,0x00,0x00,0x00,//^62
 488            0x00,0x00,0x00,0x00,0x00,0x00,0x00,0x00,0x80,0x80,0x80,0x80,0x80,0x80,0x80,0x80,//_63
 489            0x00,0x00,0x00,0x0C,0x12,0x12,0x0C,0x00,0x00,0x00,0x00,0x00,0x00,0x00,0x00,0x00,//℃上的圈64 按`出来
 490            0x00,0x00,0x80,0x80,0x80,0x80,0x00,0x00,0x00,0x19,0x24,0x22,0x22,0x22,0x3F,0x20,//a65
 491            0x08,0xF8,0x00,0x80,0x80,0x00,0x00,0x00,0x00,0x3F,0x11,0x20,0x20,0x11,0x0E,0x00,//b66
 492            0x00,0x00,0x00,0x80,0x80,0x80,0x00,0x00,0x00,0x0E,0x11,0x20,0x20,0x20,0x11,0x00,//c67
 493            0x00,0x00,0x00,0x80,0x80,0x88,0xF8,0x00,0x00,0x0E,0x11,0x20,0x20,0x10,0x3F,0x20,//d68
 494            0x00,0x00,0x80,0x80,0x80,0x80,0x00,0x00,0x00,0x1F,0x22,0x22,0x22,0x22,0x13,0x00,//e69
 495            0x00,0x80,0x80,0xF0,0x88,0x88,0x88,0x18,0x00,0x20,0x20,0x3F,0x20,0x20,0x00,0x00,//f70
 496            0x00,0x00,0x80,0x80,0x80,0x80,0x80,0x00,0x00,0x6B,0x94,0x94,0x94,0x93,0x60,0x00,//g71
 497            0x08,0xF8,0x00,0x80,0x80,0x80,0x00,0x00,0x20,0x3F,0x21,0x00,0x00,0x20,0x3F,0x20,//h72
 498            0x00,0x80,0x98,0x98,0x00,0x00,0x00,0x00,0x00,0x20,0x20,0x3F,0x20,0x20,0x00,0x00,//i73
 499            0x00,0x00,0x00,0x80,0x98,0x98,0x00,0x00,0x00,0xC0,0x80,0x80,0x80,0x7F,0x00,0x00,//j74
 500            0x08,0xF8,0x00,0x00,0x80,0x80,0x80,0x00,0x20,0x3F,0x24,0x02,0x2D,0x30,0x20,0x00,//k75
 501            0x00,0x08,0x08,0xF8,0x00,0x00,0x00,0x00,0x00,0x20,0x20,0x3F,0x20,0x20,0x00,0x00,//l76
 502            0x80,0x80,0x80,0x80,0x80,0x80,0x80,0x00,0x20,0x3F,0x20,0x00,0x3F,0x20,0x00,0x3F,//m77
 503            0x80,0x80,0x00,0x80,0x80,0x80,0x00,0x00,0x20,0x3F,0x21,0x00,0x00,0x20,0x3F,0x20,//n78
 504            0x00,0x00,0x80,0x80,0x80,0x80,0x00,0x00,0x00,0x1F,0x20,0x20,0x20,0x20,0x1F,0x00,//o79
 505            0x80,0x80,0x00,0x80,0x80,0x00,0x00,0x00,0x80,0xFF,0xA1,0x20,0x20,0x11,0x0E,0x00,//p80
 506            0x00,0x00,0x00,0x80,0x80,0x80,0x80,0x00,0x00,0x0E,0x11,0x20,0x20,0xA0,0xFF,0x80,//q81
 507            0x80,0x80,0x80,0x00,0x80,0x80,0x80,0x00,0x20,0x20,0x3F,0x21,0x20,0x00,0x01,0x00,//r82
 508            0x00,0x00,0x80,0x80,0x80,0x80,0x80,0x00,0x00,0x33,0x24,0x24,0x24,0x24,0x19,0x00,//s83
 509            0x00,0x80,0x80,0xE0,0x80,0x80,0x00,0x00,0x00,0x00,0x00,0x1F,0x20,0x20,0x00,0x00,//t84
 510            0x80,0x80,0x00,0x00,0x00,0x80,0x80,0x00,0x00,0x1F,0x20,0x20,0x20,0x10,0x3F,0x20,//u85
 511            0x80,0x80,0x80,0x00,0x00,0x80,0x80,0x80,0x00,0x01,0x0E,0x30,0x08,0x06,0x01,0x00,//v86
 512            0x80,0x80,0x00,0x80,0x00,0x80,0x80,0x80,0x0F,0x30,0x0C,0x03,0x0C,0x30,0x0F,0x00,//w87
 513            0x00,0x80,0x80,0x00,0x80,0x80,0x80,0x00,0x00,0x20,0x31,0x2E,0x0E,0x31,0x20,0x00,//x88
 514            0x80,0x80,0x80,0x00,0x00,0x80,0x80,0x80,0x80,0x81,0x8E,0x70,0x18,0x06,0x01,0x00,//y89
 515            0x00,0x80,0x80,0x80,0x80,0x80,0x80,0x00,0x00,0x21,0x30,0x2C,0x22,0x21,0x30,0x00,//z90
 516            0x00,0x00,0x00,0x00,0x80,0x7C,0x02,0x02,0x00,0x00,0x00,0x00,0x00,0x3F,0x40,0x40,//{91
 517            0x00,0x00,0x00,0x00,0xFF,0x00,0x00,0x00,0x00,0x00,0x00,0x00,0xFF,0x00,0x00,0x00,//|92
C51 COMPILER V9.54   LQ12864                                                               08/30/2017 10:15:48 PAGE 10  

 518            0x00,0x02,0x02,0x7C,0x80,0x00,0x00,0x00,0x00,0x40,0x40,0x3F,0x00,0x00,0x00,0x00,//}93
 519            0x00,0x06,0x01,0x01,0x02,0x02,0x04,0x04,0x00,0x00,0x00,0x00,0x00,0x00,0x00,0x00,//~94
 520          
 521          };
 522          unsigned char code F16X32_Idx[] = 
 523          {
 524            "0123456789`C"
 525          };
 526          unsigned char code F16X32[]=
 527          {
 528            0x00, 0x00, 0x80, 0xC0, 0xE0, 0xF0, 0x70, 0x38, 0x38, 0x78, 0xF0, 0xF0, 0xE0, 0xC0,
 529            0x00, 0x00, 0x00, 0xFC, 0xFF, 0xFF, 0xFF, 0x03, 0x00, 0x00, 0x00, 0x00, 0x00, 0x07,
 530            0xFF, 0xFF, 0xFF, 0xF0, 0x00, 0x1F, 0xFF, 0xFF, 0xFF, 0xE0, 0x00, 0x00, 0x00, 0x00,
 531            0x80, 0xF0, 0xFF, 0xFF, 0x7F, 0x07, 0x00, 0x00, 0x00, 0x01, 0x07, 0x0F, 0x0F, 0x0E,
 532            0x0E, 0x0E, 0x0F, 0x07, 0x03, 0x01, 0x00, 0x00,//00
 533          
 534            0x00, 0x00, 0x00, 0x80, 0x80, 0x80, 0xC0, 0xE0, 0xF8, 0xF8, 0xF8, 0x00, 0x00, 0x00,
 535            0x00, 0x00, 0x00, 0x00, 0x00, 0x01, 0x01, 0x01, 0x01, 0xFF, 0xFF, 0xFF, 0xFF, 0x00,
 536            0x00, 0x00, 0x00, 0x00, 0x00, 0x00, 0x00, 0x00, 0x00, 0x00, 0x00, 0xFF, 0xFF, 0xFF,
 537            0xFF, 0x00, 0x00, 0x00, 0x00, 0x00, 0x00, 0x00, 0x00, 0x00, 0x00, 0x00, 0x00, 0x0F,
 538            0x0F, 0x0F, 0x0F, 0x00, 0x00, 0x00, 0x00, 0x00,//11
 539          
 540            0x00, 0x00, 0x00, 0xC0, 0xE0, 0xF0, 0x70, 0x38, 0x38, 0x38, 0x70, 0xF0, 0xF0, 0xE0,
 541            0x80, 0x00, 0x00, 0x00, 0x07, 0x07, 0x07, 0x07, 0x00, 0x00, 0x00, 0xC0, 0xF0, 0xFF,
 542            0xFF, 0x7F, 0x0F, 0x00, 0x00, 0x00, 0x00, 0xC0, 0xE0, 0xF8, 0xFC, 0x3E, 0x1F, 0x0F,
 543            0x07, 0x01, 0x00, 0x00, 0x00, 0x00, 0x00, 0x0C, 0x0F, 0x0F, 0x0F, 0x0F, 0x0E, 0x0E,
 544            0x0E, 0x0E, 0x0E, 0x0E, 0x0E, 0x0E, 0x0E, 0x00,//22
 545          
 546            0x00, 0x00, 0x80, 0xE0, 0xF0, 0xF0, 0x70, 0x38, 0x38, 0x38, 0xF0, 0xF0, 0xE0, 0xC0,
 547            0x00, 0x00, 0x00, 0x00, 0x03, 0x03, 0x03, 0x03, 0x00, 0xC0, 0xC0, 0xE0, 0xF0, 0xFF,
 548            0x3F, 0x1F, 0x07, 0x00, 0x00, 0x30, 0xF0, 0xF0, 0xF0, 0x80, 0x00, 0x00, 0x00, 0x01,
 549            0x03, 0xFF, 0xFF, 0xFE, 0xFC, 0x00, 0x00, 0x00, 0x01, 0x03, 0x07, 0x0F, 0x0E, 0x0E,
 550            0x0E, 0x0E, 0x0F, 0x0F, 0x07, 0x03, 0x00, 0x00,//33
 551          
 552            0x00, 0x00, 0x00, 0x00, 0x00, 0x00, 0x00, 0x80, 0xE0, 0xF8, 0xF8, 0xF8, 0xF8, 0x00,
 553            0x00, 0x00, 0x00, 0x00, 0x00, 0x80, 0xE0, 0xF8, 0xFE, 0x3F, 0x0F, 0xFF, 0xFF, 0xFF,
 554            0xFF, 0x00, 0x00, 0x00, 0x00, 0x78, 0x7E, 0x7F, 0x7F, 0x73, 0x70, 0x70, 0x70, 0xFF,
 555            0xFF, 0xFF, 0xFF, 0x70, 0x70, 0x70, 0x00, 0x00, 0x00, 0x00, 0x00, 0x00, 0x00, 0x00,
 556            0x00, 0x0F, 0x0F, 0x0F, 0x0F, 0x00, 0x00, 0x00,//44
 557          
 558            0x00, 0x00, 0xF8, 0xF8, 0xF8, 0xF8, 0x38, 0x38, 0x38, 0x38, 0x38, 0x38, 0x38, 0x38,
 559            0x38, 0x00, 0x00, 0x00, 0xFF, 0xFF, 0xFF, 0xFF, 0x60, 0x70, 0x30, 0x30, 0xF0, 0xF0,
 560            0xE0, 0xC0, 0x00, 0x00, 0x00, 0x20, 0xE1, 0xE1, 0xE1, 0x81, 0x00, 0x00, 0x00, 0x00,
 561            0x80, 0xFF, 0xFF, 0xFF, 0x7F, 0x00, 0x00, 0x00, 0x01, 0x03, 0x07, 0x0F, 0x0E, 0x0E,
 562            0x0E, 0x0E, 0x0F, 0x07, 0x03, 0x01, 0x00, 0x00,//55
 563          
 564            0x00, 0x00, 0x00, 0x80, 0xC0, 0xE0, 0xF0, 0x70, 0x38, 0x38, 0x78, 0xF0, 0xF0, 0xE0,
 565            0x80, 0x00, 0x00, 0x00, 0xFC, 0xFF, 0xFF, 0xFF, 0xE3, 0x70, 0x30, 0x70, 0x70, 0xF1,
 566            0xE1, 0xC1, 0x81, 0x00, 0x00, 0x00, 0x3F, 0xFF, 0xFF, 0xFF, 0x80, 0x00, 0x00, 0x00,
 567            0x00, 0xFF, 0xFF, 0xFF, 0xFF, 0x00, 0x00, 0x00, 0x00, 0x01, 0x03, 0x07, 0x0F, 0x0E,
 568            0x0E, 0x0E, 0x0F, 0x0F, 0x07, 0x03, 0x00, 0x00,//66
 569          
 570            0x00, 0x00, 0x38, 0x38, 0x38, 0x38, 0x38, 0x38, 0x38, 0x38, 0x38, 0xF8, 0xF8, 0xF8,
 571            0x78, 0x00, 0x00, 0x00, 0x00, 0x00, 0x00, 0x00, 0x00, 0x00, 0x00, 0xE0, 0xFE, 0xFF,
 572            0x7F, 0x07, 0x00, 0x00, 0x00, 0x00, 0x00, 0x00, 0x00, 0x00, 0x80, 0xF0, 0xFF, 0xFF,
 573            0x7F, 0x07, 0x00, 0x00, 0x00, 0x00, 0x00, 0x00, 0x00, 0x00, 0x00, 0x08, 0x0F, 0x0F,
 574            0x0F, 0x03, 0x00, 0x00, 0x00, 0x00, 0x00, 0x00,//77
 575          
 576            0x00, 0x00, 0x80, 0xE0, 0xF0, 0xF0, 0x70, 0x38, 0x38, 0x38, 0x70, 0xF0, 0xE0, 0xC0,
 577            0x00, 0x00, 0x00, 0x00, 0x0F, 0x3F, 0x7F, 0xFF, 0xE0, 0xC0, 0xC0, 0xC0, 0xE0, 0xFF,
 578            0x7F, 0x3F, 0x0F, 0x00, 0x00, 0x30, 0xFC, 0xFF, 0xFF, 0x87, 0x01, 0x01, 0x00, 0x01,
 579            0x03, 0xFF, 0xFF, 0xFE, 0xFC, 0x00, 0x00, 0x00, 0x01, 0x03, 0x07, 0x0F, 0x0F, 0x0E,
C51 COMPILER V9.54   LQ12864                                                               08/30/2017 10:15:48 PAGE 11  

 580            0x0E, 0x0E, 0x0F, 0x0F, 0x07, 0x03, 0x01, 0x00,//88
 581          
 582            0x00, 0x00, 0x80, 0xE0, 0xF0, 0xF0, 0x78, 0x38, 0x38, 0x78, 0xF0, 0xF0, 0xE0, 0x80,
 583            0x00, 0x00, 0x00, 0x00, 0xFF, 0xFF, 0xFF, 0xFF, 0x00, 0x00, 0x00, 0x00, 0x80, 0xFF,
 584            0xFF, 0xFF, 0xFE, 0x00, 0x00, 0x00, 0xC0, 0xC3, 0xC7, 0xC7, 0x0F, 0x0E, 0x0E, 0x07,
 585            0xE7, 0xFF, 0xFF, 0xFF, 0x1F, 0x00, 0x00, 0x00, 0x01, 0x03, 0x07, 0x0F, 0x0F, 0x0E,
 586            0x0E, 0x0F, 0x0F, 0x07, 0x01, 0x00, 0x00, 0x00,//99
 587            
 588            0x00, 0x00, 0x00, 0x00, 0x00, 0x00, 0x00, 0x00, 0x70, 0x88, 0x04, 0x04, 0x04, 0x88,
 589            0x70, 0x00, 0x00, 0x00, 0x00, 0x00, 0x00, 0x00, 0x00, 0x00, 0x00, 0x00, 0x01, 0x01,
 590            0x01, 0x00, 0x00, 0x00, 0x00, 0x00, 0x00, 0x00, 0x00, 0x00, 0x00, 0x00, 0x00, 0x00,
 591            0x00, 0x00, 0x00, 0x00, 0x00, 0x00, 0x00, 0x00, 0x00, 0x00, 0x00, 0x00, 0x00, 0x00,
 592            0x00, 0x00, 0x00, 0x00, 0x00, 0x00, 0x00, 0x00,//圈
 593            
 594            0x00, 0x00, 0x00, 0x80, 0xE0, 0xF0, 0xF0, 0x78, 0x38, 0x38, 0x38, 0xF0, 0xF0, 0xE0,
 595            0xC0, 0x00, 0x00, 0xF0, 0xFF, 0xFF, 0xFF, 0x07, 0x00, 0x00, 0x00, 0x00, 0x00, 0x00,
 596            0x0F, 0x0F, 0x0F, 0x0F, 0x00, 0x0F, 0x7F, 0xFF, 0xFF, 0xF0, 0x80, 0x00, 0x00, 0x00,
 597            0x00, 0xC0, 0xFC, 0xFC, 0xFC, 0x3C, 0x00, 0x00, 0x00, 0x01, 0x03, 0x07, 0x0F, 0x0F,
 598            0x0E, 0x0E, 0x0F, 0x0F, 0x07, 0x03, 0x01, 0x00,//C
 599            
 600            0x00, 0x00, 0x00, 0x00, 0x00, 0x00, 0x00, 0x00, 0x00, 0x00, 0x00, 0x00, 0x00, 0x00,
 601            0x00, 0x00, 0x00, 0x80, 0x80, 0x80, 0x80, 0x80, 0x80, 0x80, 0x80, 0x80, 0x80, 0x80,
 602            0x80, 0x80, 0x80, 0x80, 0x00, 0x01, 0x01, 0x01, 0x01, 0x01, 0x01, 0x01, 0x01, 0x01,
 603            0x01, 0x01, 0x01, 0x01, 0x01, 0x01, 0x00, 0x00, 0x00, 0x00, 0x00, 0x00, 0x00, 0x00,
 604            0x00, 0x00, 0x00, 0x00, 0x00, 0x00, 0x00, 0x00,//-
 605            
 606            0x00, 0x00, 0x00, 0x00, 0x00, 0x00, 0x00, 0x00, 0x00, 0x00, 0x00, 0x00, 0x00, 0x00,
 607            0x00, 0x00, 0x00, 0x00, 0x00, 0x00, 0x00, 0x00, 0x00, 0x00, 0x00, 0x00, 0x00, 0x00,
 608            0x00, 0x00, 0x00, 0x00, 0x00, 0x00, 0x00, 0x00, 0x00, 0x00, 0x00, 0x00, 0x00, 0x00,
 609            0x00, 0x00, 0x00, 0x00, 0x00, 0x00, 0x00, 0x00, 0x00, 0x00, 0x00, 0x00, 0x00, 0x00,
 610            0x00, 0x00, 0x00, 0x00, 0x00, 0x00, 0x00, 0x00// 
 611          };
 612          void OLED_WrDat(unsigned char dat)
 613          {
 614   1        unsigned char i=8;
 615   1        OLED_CS=0;;
 616   1        OLED_DC=1;
 617   1        OLED_SCL=0;
 618   1        _nop_();    
 619   1        while(i--)
 620   1        {
 621   2          if(dat&0x80){OLED_SDA=1;}
 622   2          else{OLED_SDA=0;}
 623   2          OLED_SCL=1; 
 624   2          _nop_();;
 625   2          _nop_();            
 626   2          OLED_SCL=0;;    
 627   2          dat<<=1;    
 628   2        }
 629   1        OLED_CS=1;
 630   1      }
 631          void OLED_WrCmd(unsigned char cmd)
 632          {
 633   1        unsigned char i=8;
 634   1        
 635   1        OLED_CS=0;;
 636   1        OLED_DC=0;;
 637   1        OLED_SCL=0;;
 638   1        _nop_();   
 639   1        while(i--)
 640   1        {
 641   2          if(cmd&0x80){OLED_SDA=1;}
C51 COMPILER V9.54   LQ12864                                                               08/30/2017 10:15:48 PAGE 12  

 642   2          else{OLED_SDA=0;;}
 643   2          OLED_SCL=1;;
 644   2          _nop_();;
 645   2          _nop_();             
 646   2          OLED_SCL=0;;    
 647   2          cmd<<=1;;   
 648   2        }   
 649   1        OLED_CS=1;
 650   1      }
 651          void OLED_Set_Pos(unsigned char x, unsigned char y)
 652          { 
 653   1        OLED_WrCmd(0xb0+y);
 654   1        OLED_WrCmd(((x&0xf0)>>4)|0x10);
 655   1        OLED_WrCmd((x&0x0f)|0x01); 
 656   1      } 
 657          void OLED_Fill(unsigned char bmp_data)
 658          {
 659   1        unsigned char y,x;
 660   1        
 661   1        for(y=0;y<8;y++)
 662   1        {
 663   2          OLED_WrCmd(0xb0+y);
 664   2          OLED_WrCmd(0x01);
 665   2          OLED_WrCmd(0x10);
 666   2          for(x=0;x<X_WIDTH;x++)
 667   2            OLED_WrDat(bmp_data);
 668   2        }
 669   1      }
 670          void OLED_CLS(void)
 671          {
 672   1        unsigned char y,x;  
 673   1        for(y=0;y<8;y++)
 674   1        {
 675   2          OLED_WrCmd(0xb0+y);
 676   2          OLED_WrCmd(0x01);
 677   2          OLED_WrCmd(0x10); 
 678   2          for(x=0;x<X_WIDTH;x++)
 679   2            OLED_WrDat(0);
 680   2        }
 681   1      }
 682          
 683          void OLED_Init(void)        
 684          {  
 685   1        OLED_SCL=1;
 686   1        OLED_CS=1;  //预制SLK和SS为高电平     
 687   1        
 688   1        OLED_RST=0;
 689   1        Delay_ms(50);
 690   1        OLED_RST=1;
 691   1      
 692   1        OLED_WrCmd(0xae);//--turn off oled panel
 693   1        OLED_WrCmd(0x00);//---set low column address
 694   1        OLED_WrCmd(0x10);//---set high column address
 695   1        OLED_WrCmd(0x40);//--set start line address  Set Mapping RAM Display Start Line (0x00~0x3F)
 696   1        OLED_WrCmd(0x81);//--set contrast control register
 697   1        OLED_WrCmd(0xcf); // Set SEG Output Current Brightness
 698   1        OLED_WrCmd(0xa1);//--Set SEG/Column Mapping     0xa0左右反置 0xa1正常
 699   1        OLED_WrCmd(0xc8);//Set COM/Row Scan Direction   0xc0上下反置 0xc8正常
 700   1        OLED_WrCmd(0xa6);//--set normal display
 701   1        OLED_WrCmd(0xa8);//--set multiplex ratio(1 to 64)
 702   1        OLED_WrCmd(0x3f);//--1/64 duty
 703   1        OLED_WrCmd(0xd3);//-set display offset  Shift Mapping RAM Counter (0x00~0x3F)
C51 COMPILER V9.54   LQ12864                                                               08/30/2017 10:15:48 PAGE 13  

 704   1        OLED_WrCmd(0x00);//-not offset
 705   1        OLED_WrCmd(0xd5);//--set display clock divide ratio/oscillator frequency
 706   1        OLED_WrCmd(0x80);//--set divide ratio, Set Clock as 100 Frames/Sec
 707   1        OLED_WrCmd(0xd9);//--set pre-charge period
 708   1        OLED_WrCmd(0xf1);//Set Pre-Charge as 15 Clocks & Discharge as 1 Clock
 709   1        OLED_WrCmd(0xda);//--set com pins hardware configuration
 710   1        OLED_WrCmd(0x12);
 711   1        OLED_WrCmd(0xdb);//--set vcomh
 712   1        OLED_WrCmd(0x40);//Set VCOM Deselect Level
 713   1        OLED_WrCmd(0x20);//-Set Page Addressing Mode (0x00/0x01/0x02)
 714   1        OLED_WrCmd(0x02);//
 715   1        OLED_WrCmd(0x8d);//--set Charge Pump enable/disable
 716   1        OLED_WrCmd(0x14);//--set(0x10) disable
 717   1        OLED_WrCmd(0xa4);// Disable Entire Display On (0xa4/0xa5)
 718   1        OLED_WrCmd(0xa6);// Disable Inverse Display On (0xa6/a7) 
 719   1        OLED_WrCmd(0xaf);//--turn on oled panel
 720   1        OLED_Fill(0x00);  //初始清屏
 721   1        OLED_Set_Pos(0,0);  
 722   1        
 723   1      } 
 724          
 725          ////==============================================================
 726          ////函数名： void OLED_PutPixel(unsigned char x,unsigned char y)
 727          ////功能描述：绘制一个点（x,y）
 728          ////参数：真实坐标值(x,y),x的范围0～127，y的范围0～64
 729          ////返回：无
 730          ////==============================================================
 731          //void OLED_PutPixel(unsigned char x,unsigned char y)
 732          //{
 733          //  unsigned char data1;  //data1当前点的数据 
 734          
 735          //  OLED_Set_Pos(x,(unsigned char)(y>>3)); 
 736          //  data1 =(unsigned char)(0x01<<(y%8));  
 737          //  OLED_WrCmd((unsigned char)(0xb0+(y>>3)));
 738          //  OLED_WrCmd((unsigned char)(((x&0xf0)>>4)|0x10));
 739          //  OLED_WrCmd((unsigned char)((x&0x0f)|0x00));
 740          //  OLED_WrDat(data1);    
 741          //}
 742          ////==============================================================
 743          ////函数名： void OLED_Rectangle(unsigned char x1,unsigned char y1,
 744          ////                   unsigned char x2,unsigned char y2,unsigned char color,unsigned char gif)
 745          ////功能描述：绘制一个实心矩形
 746          ////参数：左上角坐标（x1,y1）,右下角坐标（x2，y2）
 747          ////      其中x1、x2的范围0～127，y1，y2的范围0～63，即真实坐标值
 748          ////返回：无
 749          ////==============================================================
 750          //void OLED_Rectangle(unsigned char x1,unsigned char y1,unsigned char x2,unsigned char y2,unsigned char gi
             -f)
 751          //{
 752          //  unsigned char n; 
 753          //    
 754          //  OLED_Set_Pos(x1,y1>>3);
 755          //  for(n=x1;n<=x2;n++)
 756          //  {
 757          //    OLED_WrDat(0x01<<(y1%8));       
 758          //    if(gif == 1)  Delay_ms(50);
 759          //  }  
 760          //  OLED_Set_Pos(x1,y2>>3);
 761          //  for(n=x1;n<=x2;n++)
 762          //  {
 763          //    OLED_WrDat(0x01<<(y2%8));       
 764          //    if(gif == 1)  Delay_ms(5);
C51 COMPILER V9.54   LQ12864                                                               08/30/2017 10:15:48 PAGE 14  

 765          //  }
 766          //  
 767          //}  
 768          ////==============================================================
 769          ////函数名：OLED_P6x8Str(unsigned char x,unsigned char y,unsigned char *p)
 770          ////功能描述：写入一组标准ASCII字符串
 771          ////参数：显示的位置（x,y），y为页范围0～7，要显示的字符串
 772          ////返回：无
 773          ////==============================================================  
 774          //void OLED_P6x8Str(unsigned char x,unsigned char y,unsigned char ch[])
 775          //{
 776          //  unsigned char c=0,i=0,j=0;      
 777          //  while (ch[j]!='\0')
 778          //  {    
 779          //    c =ch[j]-32;
 780          //    if(x>126){x=0;y++;}
 781          //    OLED_Set_Pos(x,y);    
 782          //    for(i=0;i<6;i++)     
 783          //      OLED_WrDat(F6x8[c][i]);  
 784          //    x+=6;
 785          //    j++;
 786          //  }
 787          //}
 788          //==============================================================
 789          //函数名：OLED_P8x16Str(unsigned char x,unsigned char y,unsigned char *p)
 790          //功能描述：写入一组标准ASCII字符串
 791          //参数：显示的位置（x,y），y为页范围0～7，要显示的字符串
 792          //返回：无
 793          //==============================================================  
 794          void OLED_P8x16Str(unsigned char x,unsigned char y,unsigned char ch[])
 795          {
 796   1        unsigned char c=0,i=0,j=0;
 797   1              
 798   1        while (ch[j]!='\0')
 799   1        {    
 800   2          c =ch[j]-32;
 801   2          if(x>120){x=0;y++;}
 802   2          OLED_Set_Pos(x,y);    
 803   2          for(i=0;i<8;i++)     
 804   2            OLED_WrDat(F8X16[c*16+i]);
 805   2          OLED_Set_Pos(x,y+1);    
 806   2          for(i=0;i<8;i++)     
 807   2            OLED_WrDat(F8X16[c*16+i+8]);  
 808   2          x+=8;
 809   2          j++;
 810   2        }
 811   1      }
 812          //显示16x32大字温度
 813          void OLED_P16x32Temp(unsigned char x,unsigned char y,unsigned char ch[])
 814          {
 815   1        unsigned char c=0,i=0,j=0;
 816   1              
 817   1        while (ch[j]!='\0')
 818   1        {    
 819   2          if(ch[j]!='`' && ch[j]!='C' && ch[j]!='-' && ch[j]!=' ')
 820   2            c =ch[j]-48;
 821   2          else if(ch[j]=='`')
 822   2            c = 10;
 823   2          else if(ch[j]=='C')
 824   2            c = 11;
 825   2          else if(ch[j]=='-')
 826   2            c = 12;
C51 COMPILER V9.54   LQ12864                                                               08/30/2017 10:15:48 PAGE 15  

 827   2          else
 828   2            c = 13;
 829   2            
 830   2          if(x>120)
 831   2          {
 832   3            x=0;
 833   3            //y++;
 834   3          }
 835   2          OLED_Set_Pos(x,y);    
 836   2          for(i=0;i<16;i++)     
 837   2            OLED_WrDat(F16X32[c*64+i]);
 838   2          OLED_Set_Pos(x,y+1);    
 839   2          for(i=0;i<16;i++)     
 840   2            OLED_WrDat(F16X32[c*64+i+16]);  
 841   2          OLED_Set_Pos(x,y+2);    
 842   2          for(i=0;i<16;i++)     
 843   2            OLED_WrDat(F16X32[c*64+i+32]); 
 844   2          OLED_Set_Pos(x,y+3);    
 845   2          for(i=0;i<16;i++)     
 846   2            OLED_WrDat(F16X32[c*64+i+48]); 
 847   2          x+=16;
 848   2          j++;
 849   2        }
 850   1      }
 851          //输出汉字字符串
 852          void OLED_P14x16Str(unsigned char x,unsigned char y,unsigned char ch[])
 853          {
 854   1        unsigned char wm=0,ii = 0;
 855   1        unsigned int adder=1; 
 856   1        
 857   1        while(ch[ii] != '\0')
 858   1        {
 859   2          wm = 0;
 860   2          adder = 1;
 861   2          while(F14x16_Idx[wm] > 127)
 862   2          {
 863   3            if(F14x16_Idx[wm] == ch[ii])
 864   3            {
 865   4              if(F14x16_Idx[wm + 1] == ch[ii + 1])
 866   4              {
 867   5                adder = wm * 14;
 868   5                break;
 869   5              }
 870   4            }
 871   3            wm += 2;      
 872   3          }
 873   2          if(x>118){x=0;y++;}
 874   2          OLED_Set_Pos(x , y); 
 875   2          if(adder != 1)// 显示汉字         
 876   2          {
 877   3            OLED_Set_Pos(x , y);
 878   3            for(wm = 0;wm < 14;wm++)               
 879   3            {
 880   4              OLED_WrDat(F14x16[adder]);  
 881   4              adder += 1;
 882   4            }      
 883   3            OLED_Set_Pos(x,y + 1); 
 884   3            for(wm = 0;wm < 14;wm++)          
 885   3            {
 886   4              OLED_WrDat(F14x16[adder]);
 887   4              adder += 1;
 888   4            }       
C51 COMPILER V9.54   LQ12864                                                               08/30/2017 10:15:48 PAGE 16  

 889   3          }
 890   2          else        //显示空白字符      
 891   2          {
 892   3            ii += 1;
 893   3            OLED_Set_Pos(x,y);
 894   3            for(wm = 0;wm < 16;wm++)
 895   3            {
 896   4                OLED_WrDat(0);
 897   4            }
 898   3            OLED_Set_Pos(x,y + 1);
 899   3            for(wm = 0;wm < 16;wm++)
 900   3            {       
 901   4                OLED_WrDat(0);  
 902   4            }
 903   3          }
 904   2          x += 14;
 905   2          ii += 2;
 906   2        }
 907   1      }
 908          //输出汉字和字符混合字符串
 909          void OLED_Print(unsigned char x, unsigned char y, unsigned char ch[])
 910          {
 911   1        unsigned char ch2[3];
 912   1        unsigned int ii=0;        
 913   1        while(ch[ii] != '\0')
 914   1        {
 915   2          if(ch[ii] > 127)
 916   2          {
 917   3            ch2[0] = ch[ii];
 918   3            ch2[1] = ch[ii + 1];
 919   3            ch2[2] = '\0';      //汉字为两个字节
 920   3            OLED_P14x16Str(x , y, ch2); //显示汉字
 921   3            x += 14;
 922   3            ii += 2;
 923   3          }
 924   2          else
 925   2          {
 926   3            ch2[0] = ch[ii];  
 927   3            ch2[1] = '\0';      //字母占一个字节
 928   3            OLED_P8x16Str(x , y , ch2); //显示字母
 929   3            x += 8;
 930   3            ii+= 1;
 931   3          }
 932   2        }
 933   1      } 
 934          
 935          //==============================================================
 936          //函数名： void Draw_BMP(unsigned char x,unsigned char y)
 937          //功能描述：显示BMP图片128×64
 938          //参数：起始点坐标(x,y),x的范围0～127，y为页的范围0～7
 939          //返回：无
 940          //==============================================================
 941          void Draw_BMP(unsigned char * bmp)
 942          {   
 943   1        unsigned int ii=0;
 944   1        unsigned char x,y;
 945   1        
 946   1        for(y=0;y<8;y++)
 947   1        {
 948   2          OLED_Set_Pos(0,y);        
 949   2          for(x=0;x<128;x++)
 950   2            {      
C51 COMPILER V9.54   LQ12864                                                               08/30/2017 10:15:48 PAGE 17  

 951   3              OLED_WrDat(bmp[ii++]);        
 952   3            }
 953   2        }
 954   1      }
 955          
 956          
 957          //void OLED_PrintU16(unsigned char x,unsigned char y,unsigned int num)
 958          //{
 959          //  unsigned char tmp[6],i;
 960          //  tmp[5]=0;
 961          //  tmp[4]=(unsigned char)(num%10+0x30);
 962          //  tmp[3]=(unsigned char)(num/10%10+0x30);
 963          //  tmp[2]=(unsigned char)(num/100%10+0x30);
 964          //  tmp[1]=(unsigned char)(num/1000%10+0x30);
 965          //  tmp[0]=(unsigned char)(num/10000%10+0x30);
 966          //  
 967          //  for(i=0;i<4;i++)
 968          //  {
 969          //    if(tmp[i]=='0')
 970          //      tmp[i]=' ';
 971          //    else
 972          //      break;
 973          //  }
 974          //  
 975          //  OLED_P6x8Str(x,y,tmp);
 976          //  
 977          //}
 978          //void OLED_PrintFloat(unsigned char x,unsigned char y,float num) //不常用，最好别用
 979          //{
 980          //  unsigned char tmp[6],i;
 981          //  tmp[5]=0;
 982          //  num *= 10;
 983          //  if(num>0)
 984          //  {
 985          //    tmp[0]='+';
 986          //    tmp[4]=(unsigned char)((int)num%10+0x30);
 987          //    tmp[3]=(unsigned char)((int)num/10%10+0x30);
 988          //    tmp[2]=(unsigned char)((int)num/100%10+0x30);
 989          //    tmp[1]=(unsigned char)((int)num/1000%10+0x30);
 990          //  }
 991          //  else
 992          //  {
 993          //    tmp[0]='-';
 994          //    num=-num;
 995          //    tmp[4]=(unsigned char)((int)num%10+0x30);
 996          //    tmp[3]=(unsigned char)((int)num/10%10+0x30);
 997          //    tmp[2]=(unsigned char)((int)num/100%10+0x30);
 998          //    tmp[1]=(unsigned char)((int)num/1000%10+0x30);
 999          //  }
1000          //  for(i=0;i<4;i++)
1001          //  {
1002          //    if(tmp[i]=='0')
1003          //      tmp[i]=' ';
1004          //    else
1005          //      break;
1006          //  }
1007          //  OLED_P6x8Str(x,y,tmp);
1008          //}
1009          


MODULE INFORMATION:   STATIC OVERLAYABLE
C51 COMPILER V9.54   LQ12864                                                               08/30/2017 10:15:48 PAGE 18  

   CODE SIZE        =   1545    ----
   CONSTANT SIZE    =   6124    ----
   XDATA SIZE       =   ----      39
   PDATA SIZE       =   ----    ----
   DATA SIZE        =   ----    ----
   IDATA SIZE       =   ----    ----
   BIT SIZE         =   ----    ----
END OF MODULE INFORMATION.


C51 COMPILATION COMPLETE.  0 WARNING(S),  0 ERROR(S)
