BL51 BANKED LINKER/LOCATER V6.22                                                        08/03/2016  09:48:12  PAGE 1


BL51 BANKED LINKER/LOCATER V6.22, INVOKED BY:
C:\KEIL\C51\BIN\BL51.EXE .\Output\testw77.obj, C:\Keil\C51\LIB\CS51S.LIB TO .\Output\xRAM_256 PRINT (.\LST\xRAM_256.m51)
>>  RAMSIZE (256)


*** FATAL ERROR L218: NOT AN OBJECT FILE
    FILE: C:\Keil\C51\LIB\CS51S.LIB
